{
  "address": "0xC45a3EEa14df926d2d1188bBc19Ed46c48332378",
  "abi": [
    {
      "inputs": [
        {
          "internalType": "contract IPollFactory",
          "name": "_pollFactory",
          "type": "address"
        },
        {
          "internalType": "address",
          "name": "_anonaadhar",
          "type": "address"
        },
        {
          "internalType": "contract IMessageProcessorFactory",
          "name": "_messageProcessorFactory",
          "type": "address"
        },
        {
          "internalType": "contract ITallyFactory",
          "name": "_tallyFactory",
          "type": "address"
        },
        {
          "internalType": "contract SignUpGatekeeper",
          "name": "_signUpGatekeeper",
          "type": "address"
        },
        {
          "internalType": "contract InitialVoiceCreditProxy",
          "name": "_initialVoiceCreditProxy",
          "type": "address"
        },
        {
          "internalType": "uint8",
          "name": "_stateTreeDepth",
          "type": "uint8"
        },
        {
          "internalType": "uint256[5]",
          "name": "_emptyBallotRoots",
          "type": "uint256[5]"
        }
      ],
      "stateMutability": "nonpayable",
      "type": "constructor"
    },
    {
      "inputs": [],
      "name": "DefaultZeroBadIndex",
      "type": "error"
    },
    {
      "inputs": [],
      "name": "DepthTooLarge",
      "type": "error"
    },
    {
      "inputs": [],
      "name": "InvalidMessage",
      "type": "error"
    },
    {
      "inputs": [],
      "name": "InvalidPubKey",
      "type": "error"
    },
    {
      "inputs": [],
      "name": "NumberOfLeavesCannotBeZero",
      "type": "error"
    },
    {
      "inputs": [
        {
          "internalType": "address",
          "name": "owner",
          "type": "address"
        }
      ],
      "name": "OwnableInvalidOwner",
      "type": "error"
    },
    {
      "inputs": [
        {
          "internalType": "address",
          "name": "account",
          "type": "address"
        }
      ],
      "name": "OwnableUnauthorizedAccount",
      "type": "error"
    },
    {
      "inputs": [
        {
          "internalType": "address",
          "name": "_poll",
          "type": "address"
        }
      ],
      "name": "PollAddressDoesNotExist",
      "type": "error"
    },
    {
      "inputs": [
        {
          "internalType": "uint256",
          "name": "pollId",
          "type": "uint256"
        }
      ],
      "name": "PollDoesNotExist",
      "type": "error"
    },
    {
      "inputs": [],
      "name": "PoseidonHashLibrariesNotLinked",
      "type": "error"
    },
    {
      "inputs": [],
      "name": "ProofisFalse",
      "type": "error"
    },
    {
      "inputs": [],
      "name": "PubKeyAlreadyRegistered",
      "type": "error"
    },
    {
      "inputs": [],
      "name": "TooManySignups",
      "type": "error"
    },
    {
      "anonymous": false,
      "inputs": [
        {
          "indexed": false,
          "internalType": "uint256",
          "name": "_pollId",
          "type": "uint256"
        },
        {
          "indexed": true,
          "internalType": "uint256",
          "name": "_coordinatorPubKeyX",
          "type": "uint256"
        },
        {
          "indexed": true,
          "internalType": "uint256",
          "name": "_coordinatorPubKeyY",
          "type": "uint256"
        },
        {
          "components": [
            {
              "internalType": "address",
              "name": "poll",
              "type": "address"
            },
            {
              "internalType": "address",
              "name": "messageProcessor",
              "type": "address"
            },
            {
              "internalType": "address",
              "name": "tally",
              "type": "address"
            }
          ],
          "indexed": false,
          "internalType": "struct MACI.PollContracts",
          "name": "pollAddr",
          "type": "tuple"
        },
        {
          "indexed": false,
          "internalType": "enum DomainObjs.Mode",
          "name": "_mode",
          "type": "uint8"
        }
      ],
      "name": "DeployPoll",
      "type": "event"
    },
    {
      "anonymous": false,
      "inputs": [
        {
          "indexed": true,
          "internalType": "address",
          "name": "previousOwner",
          "type": "address"
        },
        {
          "indexed": true,
          "internalType": "address",
          "name": "newOwner",
          "type": "address"
        }
      ],
      "name": "OwnershipTransferred",
      "type": "event"
    },
    {
      "anonymous": false,
      "inputs": [
        {
          "indexed": true,
          "internalType": "uint256",
          "name": "pollId",
          "type": "uint256"
        },
        {
          "indexed": true,
          "internalType": "address",
          "name": "creator",
          "type": "address"
        },
        {
          "components": [
            {
              "internalType": "address",
              "name": "poll",
              "type": "address"
            },
            {
              "internalType": "address",
              "name": "messageProcessor",
              "type": "address"
            },
            {
              "internalType": "address",
              "name": "tally",
              "type": "address"
            }
          ],
          "indexed": false,
          "internalType": "struct MACI.PollContracts",
          "name": "pollContracts",
          "type": "tuple"
        },
        {
          "indexed": false,
          "internalType": "string",
          "name": "name",
          "type": "string"
        },
        {
          "indexed": false,
          "internalType": "string[]",
          "name": "options",
          "type": "string[]"
        },
        {
          "indexed": false,
          "internalType": "string",
          "name": "metadata",
          "type": "string"
        },
        {
          "indexed": false,
          "internalType": "uint256",
          "name": "startTime",
          "type": "uint256"
        },
        {
          "indexed": false,
          "internalType": "uint256",
          "name": "endTime",
          "type": "uint256"
        }
      ],
      "name": "PollCreated",
      "type": "event"
    },
    {
      "anonymous": false,
      "inputs": [
        {
          "indexed": true,
          "internalType": "uint256",
          "name": "pollId",
          "type": "uint256"
        },
        {
          "indexed": false,
          "internalType": "string",
          "name": "tallyJsonCID",
          "type": "string"
        }
      ],
      "name": "PollTallyCIDUpdated",
      "type": "event"
    },
    {
      "anonymous": false,
      "inputs": [
        {
          "indexed": false,
          "internalType": "uint256",
          "name": "_stateIndex",
          "type": "uint256"
        },
        {
          "indexed": true,
          "internalType": "uint256",
          "name": "_userPubKeyX",
          "type": "uint256"
        },
        {
          "indexed": true,
          "internalType": "uint256",
          "name": "_userPubKeyY",
          "type": "uint256"
        },
        {
          "indexed": false,
          "internalType": "uint256",
          "name": "_voiceCreditBalance",
          "type": "uint256"
        },
        {
          "indexed": false,
          "internalType": "uint256",
          "name": "_timestamp",
          "type": "uint256"
        }
      ],
      "name": "SignUp",
      "type": "event"
    },
    {
      "inputs": [],
      "name": "AnonAadhar",
      "outputs": [
        {
          "internalType": "contract IAnonAadhaar",
          "name": "",
          "type": "address"
        }
      ],
      "stateMutability": "view",
      "type": "function"
    },
    {
      "inputs": [],
      "name": "MESSAGE_DATA_LENGTH",
      "outputs": [
        {
          "internalType": "uint8",
          "name": "",
          "type": "uint8"
        }
      ],
      "stateMutability": "view",
      "type": "function"
    },
    {
      "inputs": [],
      "name": "coordinatorPubKey",
      "outputs": [
        {
          "internalType": "uint256",
          "name": "x",
          "type": "uint256"
        },
        {
          "internalType": "uint256",
          "name": "y",
          "type": "uint256"
        }
      ],
      "stateMutability": "view",
      "type": "function"
    },
    {
      "inputs": [
        {
          "internalType": "string",
          "name": "_name",
          "type": "string"
        },
        {
          "internalType": "string[]",
          "name": "_options",
          "type": "string[]"
        },
        {
          "internalType": "string",
          "name": "_metadata",
          "type": "string"
        },
        {
          "internalType": "uint256",
          "name": "_duration",
          "type": "uint256"
        },
        {
          "internalType": "enum DomainObjs.Mode",
          "name": "isQv",
          "type": "uint8"
        }
      ],
      "name": "createPoll",
      "outputs": [],
      "stateMutability": "nonpayable",
      "type": "function"
    },
    {
      "inputs": [
        {
          "internalType": "uint256",
          "name": "_duration",
          "type": "uint256"
        },
        {
          "components": [
            {
              "internalType": "uint8",
              "name": "intStateTreeDepth",
              "type": "uint8"
            },
            {
              "internalType": "uint8",
              "name": "messageTreeSubDepth",
              "type": "uint8"
            },
            {
              "internalType": "uint8",
              "name": "messageTreeDepth",
              "type": "uint8"
            },
            {
              "internalType": "uint8",
              "name": "voteOptionTreeDepth",
              "type": "uint8"
            }
          ],
          "internalType": "struct Params.TreeDepths",
          "name": "_treeDepths",
          "type": "tuple"
        },
        {
          "components": [
            {
              "internalType": "uint256",
              "name": "x",
              "type": "uint256"
            },
            {
              "internalType": "uint256",
              "name": "y",
              "type": "uint256"
            }
          ],
          "internalType": "struct DomainObjs.PubKey",
          "name": "_coordinatorPubKey",
          "type": "tuple"
        },
        {
          "internalType": "address",
          "name": "_verifier",
          "type": "address"
        },
        {
          "internalType": "address",
          "name": "_vkRegistry",
          "type": "address"
        },
        {
          "internalType": "enum DomainObjs.Mode",
          "name": "_mode",
          "type": "uint8"
        }
      ],
      "name": "deployPoll",
      "outputs": [
        {
          "components": [
            {
              "internalType": "address",
              "name": "poll",
              "type": "address"
            },
            {
              "internalType": "address",
              "name": "messageProcessor",
              "type": "address"
            },
            {
              "internalType": "address",
              "name": "tally",
              "type": "address"
            }
          ],
          "internalType": "struct MACI.PollContracts",
          "name": "pollAddr",
          "type": "tuple"
        }
      ],
      "stateMutability": "nonpayable",
      "type": "function"
    },
    {
      "inputs": [
        {
          "internalType": "uint256",
          "name": "",
          "type": "uint256"
        }
      ],
      "name": "emptyBallotRoots",
      "outputs": [
        {
          "internalType": "uint256",
          "name": "",
          "type": "uint256"
        }
      ],
      "stateMutability": "view",
      "type": "function"
    },
    {
      "inputs": [
        {
          "internalType": "uint256",
          "name": "_pollId",
          "type": "uint256"
        }
      ],
      "name": "fetchPoll",
      "outputs": [
        {
          "components": [
            {
              "internalType": "uint256",
              "name": "id",
              "type": "uint256"
            },
            {
              "internalType": "string",
              "name": "name",
              "type": "string"
            },
            {
              "internalType": "bytes",
              "name": "encodedOptions",
              "type": "bytes"
            },
            {
              "internalType": "string",
              "name": "metadata",
              "type": "string"
            },
            {
              "components": [
                {
                  "internalType": "address",
                  "name": "poll",
                  "type": "address"
                },
                {
                  "internalType": "address",
                  "name": "messageProcessor",
                  "type": "address"
                },
                {
                  "internalType": "address",
                  "name": "tally",
                  "type": "address"
                }
              ],
              "internalType": "struct MACI.PollContracts",
              "name": "pollContracts",
              "type": "tuple"
            },
            {
              "internalType": "uint256",
              "name": "startTime",
              "type": "uint256"
            },
            {
              "internalType": "uint256",
              "name": "endTime",
              "type": "uint256"
            },
            {
              "internalType": "uint256",
              "name": "numOfOptions",
              "type": "uint256"
            },
            {
              "internalType": "string[]",
              "name": "options",
              "type": "string[]"
            },
            {
              "internalType": "string",
              "name": "tallyJsonCID",
              "type": "string"
            }
          ],
          "internalType": "struct MACIWrapper.PollData",
          "name": "poll_",
          "type": "tuple"
        }
      ],
      "stateMutability": "view",
      "type": "function"
    },
    {
      "inputs": [
        {
          "internalType": "uint256",
          "name": "_page",
          "type": "uint256"
        },
        {
          "internalType": "uint256",
          "name": "_perPage",
          "type": "uint256"
        },
        {
          "internalType": "bool",
          "name": "_ascending",
          "type": "bool"
        }
      ],
      "name": "fetchPolls",
      "outputs": [
        {
          "components": [
            {
              "internalType": "uint256",
              "name": "id",
              "type": "uint256"
            },
            {
              "internalType": "string",
              "name": "name",
              "type": "string"
            },
            {
              "internalType": "bytes",
              "name": "encodedOptions",
              "type": "bytes"
            },
            {
              "internalType": "string",
              "name": "metadata",
              "type": "string"
            },
            {
              "components": [
                {
                  "internalType": "address",
                  "name": "poll",
                  "type": "address"
                },
                {
                  "internalType": "address",
                  "name": "messageProcessor",
                  "type": "address"
                },
                {
                  "internalType": "address",
                  "name": "tally",
                  "type": "address"
                }
              ],
              "internalType": "struct MACI.PollContracts",
              "name": "pollContracts",
              "type": "tuple"
            },
            {
              "internalType": "uint256",
              "name": "startTime",
              "type": "uint256"
            },
            {
              "internalType": "uint256",
              "name": "endTime",
              "type": "uint256"
            },
            {
              "internalType": "uint256",
              "name": "numOfOptions",
              "type": "uint256"
            },
            {
              "internalType": "string[]",
              "name": "options",
              "type": "string[]"
            },
            {
              "internalType": "string",
              "name": "tallyJsonCID",
              "type": "string"
            }
          ],
          "internalType": "struct MACIWrapper.PollData[]",
          "name": "polls_",
          "type": "tuple[]"
        }
      ],
      "stateMutability": "view",
      "type": "function"
    },
    {
      "inputs": [
        {
          "internalType": "uint256",
          "name": "_pollId",
          "type": "uint256"
        }
      ],
      "name": "getPoll",
      "outputs": [
        {
          "internalType": "address",
          "name": "poll",
          "type": "address"
        }
      ],
      "stateMutability": "view",
      "type": "function"
    },
    {
      "inputs": [
        {
          "internalType": "address",
          "name": "_poll",
          "type": "address"
        }
      ],
      "name": "getPollId",
      "outputs": [
        {
          "internalType": "uint256",
          "name": "pollId",
          "type": "uint256"
        }
      ],
      "stateMutability": "view",
      "type": "function"
    },
    {
      "inputs": [],
      "name": "getStateTreeRoot",
      "outputs": [
        {
          "internalType": "uint256",
          "name": "root",
          "type": "uint256"
        }
      ],
      "stateMutability": "view",
      "type": "function"
    },
    {
      "inputs": [
        {
          "internalType": "uint256[2]",
          "name": "array",
          "type": "uint256[2]"
        }
      ],
      "name": "hash2",
      "outputs": [
        {
          "internalType": "uint256",
          "name": "result",
          "type": "uint256"
        }
      ],
      "stateMutability": "pure",
      "type": "function"
    },
    {
      "inputs": [
        {
          "internalType": "uint256[3]",
          "name": "array",
          "type": "uint256[3]"
        }
      ],
      "name": "hash3",
      "outputs": [
        {
          "internalType": "uint256",
          "name": "result",
          "type": "uint256"
        }
      ],
      "stateMutability": "pure",
      "type": "function"
    },
    {
      "inputs": [
        {
          "internalType": "uint256[4]",
          "name": "array",
          "type": "uint256[4]"
        }
      ],
      "name": "hash4",
      "outputs": [
        {
          "internalType": "uint256",
          "name": "result",
          "type": "uint256"
        }
      ],
      "stateMutability": "pure",
      "type": "function"
    },
    {
      "inputs": [
        {
          "internalType": "uint256[5]",
          "name": "array",
          "type": "uint256[5]"
        }
      ],
      "name": "hash5",
      "outputs": [
        {
          "internalType": "uint256",
          "name": "result",
          "type": "uint256"
        }
      ],
      "stateMutability": "pure",
      "type": "function"
    },
    {
      "inputs": [
        {
          "internalType": "uint256",
          "name": "left",
          "type": "uint256"
        },
        {
          "internalType": "uint256",
          "name": "right",
          "type": "uint256"
        }
      ],
      "name": "hashLeftRight",
      "outputs": [
        {
          "internalType": "uint256",
          "name": "result",
          "type": "uint256"
        }
      ],
      "stateMutability": "pure",
      "type": "function"
    },
    {
      "inputs": [
        {
          "components": [
            {
              "internalType": "uint256[10]",
              "name": "data",
              "type": "uint256[10]"
            }
          ],
          "internalType": "struct DomainObjs.Message",
          "name": "_message",
          "type": "tuple"
        },
        {
          "components": [
            {
              "internalType": "uint256",
              "name": "x",
              "type": "uint256"
            },
            {
              "internalType": "uint256",
              "name": "y",
              "type": "uint256"
            }
          ],
          "internalType": "struct DomainObjs.PubKey",
          "name": "_encPubKey",
          "type": "tuple"
        }
      ],
      "name": "hashMessageAndEncPubKey",
      "outputs": [
        {
          "internalType": "uint256",
          "name": "msgHash",
          "type": "uint256"
        }
      ],
      "stateMutability": "pure",
      "type": "function"
    },
    {
      "inputs": [
        {
          "components": [
            {
              "components": [
                {
                  "internalType": "uint256",
                  "name": "x",
                  "type": "uint256"
                },
                {
                  "internalType": "uint256",
                  "name": "y",
                  "type": "uint256"
                }
              ],
              "internalType": "struct DomainObjs.PubKey",
              "name": "pubKey",
              "type": "tuple"
            },
            {
              "internalType": "uint256",
              "name": "voiceCreditBalance",
              "type": "uint256"
            },
            {
              "internalType": "uint256",
              "name": "timestamp",
              "type": "uint256"
            }
          ],
          "internalType": "struct DomainObjs.StateLeaf",
          "name": "_stateLeaf",
          "type": "tuple"
        }
      ],
      "name": "hashStateLeaf",
      "outputs": [
        {
          "internalType": "uint256",
          "name": "ciphertext",
          "type": "uint256"
        }
      ],
      "stateMutability": "pure",
      "type": "function"
    },
    {
      "inputs": [],
      "name": "initialVoiceCreditProxy",
      "outputs": [
        {
          "internalType": "contract InitialVoiceCreditProxy",
          "name": "",
          "type": "address"
        }
      ],
      "stateMutability": "view",
      "type": "function"
    },
    {
      "inputs": [
        {
          "internalType": "uint256",
          "name": "",
          "type": "uint256"
        },
        {
          "internalType": "uint256",
          "name": "",
          "type": "uint256"
        }
      ],
      "name": "isPublicKeyRegistered",
      "outputs": [
        {
          "internalType": "bool",
          "name": "",
          "type": "bool"
        }
      ],
      "stateMutability": "view",
      "type": "function"
    },
    {
      "inputs": [],
      "name": "lazyIMTData",
      "outputs": [
        {
          "internalType": "uint40",
          "name": "maxIndex",
          "type": "uint40"
        },
        {
          "internalType": "uint40",
          "name": "numberOfLeaves",
          "type": "uint40"
        }
      ],
      "stateMutability": "view",
      "type": "function"
    },
    {
      "inputs": [],
      "name": "maxSignups",
      "outputs": [
        {
          "internalType": "uint256",
          "name": "",
          "type": "uint256"
        }
      ],
      "stateMutability": "view",
      "type": "function"
    },
    {
      "inputs": [],
      "name": "messageProcessorFactory",
      "outputs": [
        {
          "internalType": "contract IMessageProcessorFactory",
          "name": "",
          "type": "address"
        }
      ],
      "stateMutability": "view",
      "type": "function"
    },
    {
      "inputs": [],
      "name": "nextPollId",
      "outputs": [
        {
          "internalType": "uint256",
          "name": "",
          "type": "uint256"
        }
      ],
      "stateMutability": "view",
      "type": "function"
    },
    {
      "inputs": [],
      "name": "numSignUps",
      "outputs": [
        {
          "internalType": "uint256",
          "name": "signUps",
          "type": "uint256"
        }
      ],
      "stateMutability": "view",
      "type": "function"
    },
    {
      "inputs": [],
      "name": "owner",
      "outputs": [
        {
          "internalType": "address",
          "name": "",
          "type": "address"
        }
      ],
      "stateMutability": "view",
      "type": "function"
    },
    {
      "inputs": [
        {
          "internalType": "uint256[2]",
          "name": "dataToPad",
          "type": "uint256[2]"
        }
      ],
      "name": "padAndHashMessage",
      "outputs": [
        {
          "components": [
            {
              "internalType": "uint256[10]",
              "name": "data",
              "type": "uint256[10]"
            }
          ],
          "internalType": "struct DomainObjs.Message",
          "name": "message",
          "type": "tuple"
        },
        {
          "components": [
            {
              "internalType": "uint256",
              "name": "x",
              "type": "uint256"
            },
            {
              "internalType": "uint256",
              "name": "y",
              "type": "uint256"
            }
          ],
          "internalType": "struct DomainObjs.PubKey",
          "name": "padKey",
          "type": "tuple"
        },
        {
          "internalType": "uint256",
          "name": "msgHash",
          "type": "uint256"
        }
      ],
      "stateMutability": "pure",
      "type": "function"
    },
    {
      "inputs": [],
      "name": "pollFactory",
      "outputs": [
        {
          "internalType": "contract IPollFactory",
          "name": "",
          "type": "address"
        }
      ],
      "stateMutability": "view",
      "type": "function"
    },
    {
      "inputs": [
        {
          "internalType": "address",
          "name": "",
          "type": "address"
        }
      ],
      "name": "pollIds",
      "outputs": [
        {
          "internalType": "uint256",
          "name": "",
          "type": "uint256"
        }
      ],
      "stateMutability": "view",
      "type": "function"
    },
    {
      "inputs": [
        {
          "internalType": "uint256",
          "name": "",
          "type": "uint256"
        }
      ],
      "name": "polls",
      "outputs": [
        {
          "internalType": "address",
          "name": "",
          "type": "address"
        }
      ],
      "stateMutability": "view",
      "type": "function"
    },
    {
      "inputs": [],
      "name": "renounceOwnership",
      "outputs": [],
      "stateMutability": "nonpayable",
      "type": "function"
    },
    {
      "inputs": [
        {
          "components": [
            {
              "internalType": "uint8",
              "name": "intStateTreeDepth",
              "type": "uint8"
            },
            {
              "internalType": "uint8",
              "name": "messageTreeSubDepth",
              "type": "uint8"
            },
            {
              "internalType": "uint8",
              "name": "messageTreeDepth",
              "type": "uint8"
            },
            {
              "internalType": "uint8",
              "name": "voteOptionTreeDepth",
              "type": "uint8"
            }
          ],
          "internalType": "struct Params.TreeDepths",
          "name": "_treeDepths",
          "type": "tuple"
        },
        {
          "components": [
            {
              "internalType": "uint256",
              "name": "x",
              "type": "uint256"
            },
            {
              "internalType": "uint256",
              "name": "y",
              "type": "uint256"
            }
          ],
          "internalType": "struct DomainObjs.PubKey",
          "name": "_coordinatorPubKey",
          "type": "tuple"
        },
        {
          "internalType": "address",
          "name": "_verifier",
          "type": "address"
        },
        {
          "internalType": "address",
          "name": "_vkRegistry",
          "type": "address"
        }
      ],
      "name": "setConfig",
      "outputs": [],
      "stateMutability": "nonpayable",
      "type": "function"
    },
    {
      "inputs": [
        {
          "internalType": "uint256[]",
          "name": "array",
          "type": "uint256[]"
        }
      ],
      "name": "sha256Hash",
      "outputs": [
        {
          "internalType": "uint256",
          "name": "result",
          "type": "uint256"
        }
      ],
      "stateMutability": "pure",
      "type": "function"
    },
    {
      "inputs": [
        {
          "components": [
            {
              "internalType": "uint256",
              "name": "x",
              "type": "uint256"
            },
            {
              "internalType": "uint256",
              "name": "y",
              "type": "uint256"
            }
          ],
          "internalType": "struct DomainObjs.PubKey",
          "name": "_pubKey",
          "type": "tuple"
        },
        {
          "internalType": "bytes",
          "name": "_signUpGatekeeperData",
          "type": "bytes"
        },
        {
          "internalType": "bytes",
          "name": "_initialVoiceCreditProxyData",
          "type": "bytes"
        }
      ],
      "name": "signUp",
      "outputs": [],
      "stateMutability": "nonpayable",
      "type": "function"
    },
    {
      "inputs": [
        {
          "components": [
            {
              "internalType": "uint256",
              "name": "x",
              "type": "uint256"
            },
            {
              "internalType": "uint256",
              "name": "y",
              "type": "uint256"
            }
          ],
          "internalType": "struct DomainObjs.PubKey",
          "name": "_pubKey",
          "type": "tuple"
        },
        {
          "internalType": "bytes",
          "name": "_signUpGatekeeperData",
          "type": "bytes"
        },
        {
          "internalType": "bytes",
          "name": "_initialVoiceCreditProxyData",
          "type": "bytes"
        },
        {
          "components": [
            {
              "internalType": "uint256",
              "name": "nullifierSeed",
              "type": "uint256"
            },
            {
              "internalType": "uint256",
              "name": "nullifier",
              "type": "uint256"
            },
            {
              "internalType": "uint256",
              "name": "timestamp",
              "type": "uint256"
            },
            {
              "internalType": "uint256",
              "name": "signal",
              "type": "uint256"
            },
            {
              "internalType": "uint256[4]",
              "name": "revealArray",
              "type": "uint256[4]"
            },
            {
              "internalType": "uint256[8]",
              "name": "groth16Proof",
              "type": "uint256[8]"
            }
          ],
          "internalType": "struct MACIWrapper.AnonProof",
          "name": "_anonproof",
          "type": "tuple"
        }
      ],
      "name": "signUp",
      "outputs": [],
      "stateMutability": "nonpayable",
      "type": "function"
    },
    {
      "inputs": [],
      "name": "signUpGatekeeper",
      "outputs": [
        {
          "internalType": "contract SignUpGatekeeper",
          "name": "",
          "type": "address"
        }
      ],
      "stateMutability": "view",
      "type": "function"
    },
    {
      "inputs": [],
      "name": "stateTreeDepth",
      "outputs": [
        {
          "internalType": "uint8",
          "name": "",
          "type": "uint8"
        }
      ],
      "stateMutability": "view",
      "type": "function"
    },
    {
      "inputs": [],
      "name": "tallyFactory",
      "outputs": [
        {
          "internalType": "contract ITallyFactory",
          "name": "",
          "type": "address"
        }
      ],
      "stateMutability": "view",
      "type": "function"
    },
    {
      "inputs": [
        {
          "internalType": "address",
          "name": "newOwner",
          "type": "address"
        }
      ],
      "name": "transferOwnership",
      "outputs": [],
      "stateMutability": "nonpayable",
      "type": "function"
    },
    {
      "inputs": [],
      "name": "treeDepths",
      "outputs": [
        {
          "internalType": "uint8",
          "name": "intStateTreeDepth",
          "type": "uint8"
        },
        {
          "internalType": "uint8",
          "name": "messageTreeSubDepth",
          "type": "uint8"
        },
        {
          "internalType": "uint8",
          "name": "messageTreeDepth",
          "type": "uint8"
        },
        {
          "internalType": "uint8",
          "name": "voteOptionTreeDepth",
          "type": "uint8"
        }
      ],
      "stateMutability": "view",
      "type": "function"
    },
    {
      "inputs": [
        {
          "internalType": "uint256",
          "name": "_pollId",
          "type": "uint256"
        },
        {
          "internalType": "string",
          "name": "_tallyJsonCID",
          "type": "string"
        }
      ],
      "name": "updatePollTallyCID",
      "outputs": [],
      "stateMutability": "nonpayable",
      "type": "function"
    },
    {
      "inputs": [],
      "name": "verifier",
      "outputs": [
        {
          "internalType": "address",
          "name": "",
          "type": "address"
        }
      ],
      "stateMutability": "view",
      "type": "function"
    },
    {
      "inputs": [],
      "name": "vkRegistry",
      "outputs": [
        {
          "internalType": "address",
          "name": "",
          "type": "address"
        }
      ],
      "stateMutability": "view",
      "type": "function"
    }
  ],
  "transactionHash": "0x0453ce5d6f8044b57a85a1d63367bc3af85816fdda5d5b118a2ee5b55dade5a4",
  "args": [
    "0x0Fe3200B333df1E656822d3219e0A59662AAfe72",
    "0x6bE8Cec7a06BA19c39ef328e8c8940cEfeF7E281",
    "0x5A1cE4bA8F1Aeb7f1dF4F633F176CcEF9f8E423a",
    "0x5AAC668e55f429cFe8021671a45cf9cFd1C71b5B",
    "0x514B0c66b5398F45BdBDCcc6C0FAfeD82A5d33dd",
    "0x9d105FBA2C464C5b98a86A7377992f7A3e171FAE",
    10,
    [
      "16015576667038038422103932363190100635991292382181099511410843174865570503661",
      "166510078825589460025300915201657086611944528317298994959376081297530246971",
      "10057734083972610459557695472359628128485394923403014377687504571662791937025",
      "4904828619307091008204672239231377290495002626534171783829482835985709082773",
      "18694062287284245784028624966421731916526814537891066525886866373016385890569"
    ]
  ],
  "numDeployments": 1,
  "solcInputHash": "5fddffdc87c4405e6578188a7def3128",
  "bytecode": "0x6101608060405234620004e7576200411680380380916200002182856200051e565b83398101906101808082840312620004e75781516001600160a01b0381168103620004e7576020830151936001600160a01b0385168503620004e7576040840151946001600160a01b0386168603620004e7576060850151916001600160a01b0383168303620004e75760808601516001600160a01b0381168103620004e75760a0870151916001600160a01b0383168303620004e75760c08801519660ff88168803620004e7578160ff8a011215620004e7576040519860a08a016001600160401b0381118b821017620004ec5760405289918101928311620004e75760e001905b828210620004d657505050602060ff871611620004c457600160ff87161b6000198101908111620002be576007546001600160501b03191664ffffffffff91821617602881901c8216989160018a01908111620002be5760281b69ffffffffff00000000001617600755600097967f0ef71f46e11a513c599eed9dd03576c33439bcfb1cee155316f90541e41649ba5b64ffffffffff620001a68a8c6200058f565b166000526008806020528160406000205560018a1615620002d45760001964ffffffffff8b16019064ffffffffff8211620002be576200023192620001ee6020938e6200058f565b9164ffffffffff60405193620002048562000502565b166000528352604060002054825282820152604051809381926314d2f97b60e11b8352600483016200055f565b038173E1aaC950A6C8d6f8d166Cd9e2AD8062a9E2C48895af4908115620002b25760009162000276575b506001647fffffffff60ff929a821c169a0116989762000194565b906020823d602011620002a9575b8162000293602093836200051e565b81010312620002a657505160016200025b565b80fd5b3d915062000284565b6040513d6000823e3d90fd5b634e487b7160e01b600052601160045260246000fd5b505060ff62000302918b8960c05260e052610100978852610120948552610140958652806080521662000542565b60a05260005b60058110620004b15750506200034c6020604051620003278162000502565b60018152600182820152604051809381926314d2f97b60e11b8352600483016200055f565b038173E1aaC950A6C8d6f8d166Cd9e2AD8062a9E2C48895af4908115620002b25760009162000479575b5015620004675733156200044e5760098054336001600160a01b0319808316821790935560405195916001600160a01b03167f8be0079c531659141344cd1fd0a4f28419497f9722a3daafe3b4186f6b6457e0600080a360018060a01b0316906010541617601055613b5d9384620005b9853960805184610c4c015260a05184818161069b0152612752015260c05184818161198c0152612c97015260e051848181611df70152612d0d015251838181610da80152612d83015251828181611db501526127a001525181818161090501526128250152f35b604051631e4fbdf760e01b815260006004820152602490fd5b604051633d7ba68560e21b8152600490fd5b906020823d602011620004a8575b8162000496602093836200051e565b81010312620002a65750518562000376565b3d915062000487565b6001906020835193019281550162000308565b604051633e104c7760e01b8152600490fd5b815181526020918201910162000104565b600080fd5b634e487b7160e01b600052604160045260246000fd5b604081019081106001600160401b03821117620004ec57604052565b601f909101601f19168101906001600160401b03821190821017620004ec57604052565b8015620005595760ff8111620002be576001901b90565b50600190565b6040810192916000915b600283106200057757505050565b60019082518152602080910192019201919062000569565b60ff1663ffffffff0264ffffffffff91828216918203620002be57821601908111620002be579056fe608080604052600436101561001357600080fd5b60003560e01c908163055575eb14611de457508063079410db14611d9f5780631096c30e14611d48578063122db15314611d2057806313fb893214611cf75780631a8cbcaa14611ca15780631b6ef3c514611c145780632b78657114611bf65780632b7ac3f314611bcd57806331e766a514611ba85780633364120a14611b4a5780633364c4c8146119bb578063343393b5146119765780633dfb88b21461191f578063423f3e19146118a057806346e47f9a146118365780634d5da86b14610f4b57806358bfc37914610e345780635bb9399514610e0457806362a361bb14610dd757806362b31f1e14610d9257806364e0ece114610c70578063652c76e414610c32578063683f3dc314610c1657806369525c2514610bed5780636b4575e214610af3578063715018a614610a965780637d0a81c814610a555780638a2a3dfb146109bc5780638da5cb5b146109935780639cfced9714610934578063aab4a670146108ef578063ac2f0074146108bb578063ac98e5df14610879578063b686872014610849578063b87802c814610820578063bea140b314610730578063c8cf9ab2146106f6578063d7a71b9a146106be578063df82635a14610683578063edbfe83f14610553578063f2fde38b146104ca5763fc53003a146101f857600080fd5b3461043557610280366003190112610435576102133661204c565b6001600160401b0390604435828111610435576102349036906004016120ba565b6064358381116104355761024c9036906004016120ba565b610200366083190112610435576040519360c08501858110828211176104a457604052608435855260a435602086015260c435604086015260e4356060860152366101231215610435576040516102a281611f88565b806101849136831161043557610104905b8382106104ba5750506080870152366101a3121561043557604051916101008301908111838210176104a4576040528190366102841161043557905b610284821061049457505060a08501908152835160005260126020526040600020946020850195865160005260205260ff604060002054166104825760018060a01b036010541690805190602081015193604082015191608060608201519101519151926040519687956350de0e5760e01b87526004870152602486015260448501526064840152608483016000905b600482106104685750505061010482016000905b6008821061044e57505050610204816020935afa90811561044257600091610402575b506103f0576103c59183612742565b516000526012602052604060002090516000526020526040600020600160ff19825416179055600080f35b6040516306396fb560e31b8152600490fd5b90506020813d60201161043a575b8161041d6020938361202b565b810103126104355751801515810361043557386103b6565b600080fd5b3d9150610410565b6040513d6000823e3d90fd5b829350602080916001939451815201930191018492610393565b82518152869450602092830192600192909201910161037f565b604051632e13e04560e01b8152600490fd5b81358152602091820191016102ef565b634e487b7160e01b600052604160045260246000fd5b81358152602091820191016102b3565b34610435576020366003190112610435576104e361213a565b6104eb612193565b6001600160a01b0390811690811561053a57600954826001600160601b0360a01b821617600955167f8be0079c531659141344cd1fd0a4f28419497f9722a3daafe3b4186f6b6457e0600080a3005b604051631e4fbdf760e01b815260006004820152602490fd5b346104355760403660031901126104355736602312156104355761057636612102565b6040519061058382611ff5565b60405161058f81611fbe565b610140928336833752604051916105a583611fa3565b60008352600060208094015282604051926105bf84611fbe565b8236853780518452015183830152604051906105da82611fa3565b7f171e826ad4a870fd925e0bf0e87884e70e080879c2205ef10114f28a3b6f6dd78252838201907f2bd407d897fbbca9f88adfd2d15252e69de8c1564eb4d3d27162e259172f1a1d82526040519361063185611ff5565b845261063d8385613a69565b9260405194518590966000915b600a831061066e575050506101a09550519084015251610160830152610180820152f35b81806001928b5181520199019201919761064a565b346104355760003660031901126104355760206040517f00000000000000000000000000000000000000000000000000000000000000008152f35b34610435576106cc3661217d565b906000526012602052604060002090600052602052602060ff604060002054166040519015158152f35b34610435576020366003190112610435576001600160a01b0361071761213a565b1660005260116020526020604060002054604051908152f35b346104355760603660031901126104355736602312156104355760405161075681611fda565b606481368211610435576004905b8282106108105750506040516304b98e1d60e31b8152918290600090600483015b600383106107f6575050506020918173Dc5F639eb97dC09EFFf2112C5b4218984905d11A5af48015610442576000906107c4575b602090604051908152f35b506020813d82116107ee575b816107dd6020938361202b565b8101031261043557602090516107b9565b3d91506107d0565b815181528593506001929092019160209182019101610785565b8135815260209182019101610764565b346104355760203660031901126104355760043560058110156104355760209054604051908152f35b3461043557600036600319011261043557604060075481519064ffffffffff90818116835260281c166020820152f35b34610435576000366003190112610435576080600b5460ff604051918181168352818160081c166020840152818160101c16604084015260181c166060820152f35b34610435576020366003190112610435576004356000526006602052602060018060a01b0360406000205416604051908152f35b34610435576000366003190112610435576040517f00000000000000000000000000000000000000000000000000000000000000006001600160a01b03168152602090f35b346104355760a03660031901126104355736602312156104355760405161095a81612010565b60a481368211610435576020926004905b838210610984578461097c84613067565b604051908152f35b8135815290840190840161096b565b34610435576000366003190112610435576009546040516001600160a01b039091168152602090f35b3461043557366003190161018081126104355761014013610435576040516109e381611ff5565b366023121561043557604051906109f982611fbe565b8161014492368411610435576004905b848210610a4557505081526040366101431901126104355760209161097c9160405191610a3583611fa3565b3582526101643584830152613a69565b8135815260209182019101610a09565b3461043557608036600319011261043557602061097c604051610a7781611fda565b610a803661204c565b8152604435838201526064356040820152613a2d565b3461043557600036600319011261043557610aaf612193565b600980546001600160a01b031981169091556000906001600160a01b03167f8be0079c531659141344cd1fd0a4f28419497f9722a3daafe3b4186f6b6457e08280a3005b346104355761014036600319011261043557608036602319011261043557604051610b1d81611f88565b60243560ff8116810361043557815260443560ff8116810361043557602082015260643560ff8116810361043557604082015260843560ff8116810361043557606082015260403660a31901126104355760405190610b7b82611fa3565b60a435825260c4356020830152610b90612150565b610104356001600160a01b0381168103610435576101243591600283101561043557606094610bc194600435612b96565b6040805182516001600160a01b0390811682526020808501518216908301529282015190921690820152f35b34610435576000366003190112610435576010546040516001600160a01b039091168152602090f35b34610435576000366003190112610435576020604051600a8152f35b3461043557600036600319011261043557602060405160ff7f0000000000000000000000000000000000000000000000000000000000000000168152f35b3461043557366003190161010081126104355760801361043557604051610c9681611f88565b60043560ff811681036104355781526024359060ff8216820361043557602081019182526044359060ff8216820361043557604081019182526064359260ff841684036104355760608201938452604036608319011261043557604051610cfc81611fa3565b6084358152602081019160a435835260c4359560018060a01b03958688168098036104355760ff610d2b612150565b96610d34612193565b511663ff00000062ff000061ff00600b54965160081b16935160101b16935160181b169363ffffffff191617171717600b5551600c5551600d556001600160601b0360a01b9283600e541617600e551690600f541617600f55600080f35b34610435576000366003190112610435576040517f00000000000000000000000000000000000000000000000000000000000000006001600160a01b03168152602090f35b3461043557604036600319011261043557366023121561043557602061097c610dff36612102565b612f83565b3461043557602061097c610e173661217d565b60405191610e2483611fa3565b6040368437825283820152612f83565b346104355760208060031936011261043557600435906001600160401b038211610435573660238301121561043557816004013591610e7283612166565b90610e80604051928361202b565b8382528282016024819560051b83010191368311610435576024859101915b838310610f3b575050505060405182810180925190949060005b818110610f275785806000610eed8888610edc818e03601f19810183528261202b565b604051928392839251928391611e26565b8101039060025afa15610442577f30644e72e131a029b85045b68181585d2833e84879b9709143e1f593f000000160005106604051908152f35b825187529585019591850191600101610eb9565b8235815291810191859101610e9f565b346104355760a0366003190112610435576004356001600160401b03811161043557610f7b9036906004016120d5565b906001600160401b036024351161043557366023602435011215610435576001600160401b0360243560040135116104355736602480356004013560051b8135010111610435576044356001600160401b03811161043557610fe19036906004016120d5565b91906002608435101561043557610ff6612193565b600554600e54600f5460405192959261106f9290916001600160a01b03908116911661102183611f88565b60ff600b548181168552818160081c166020860152818160101c16604086015260181c16606084015260405161105681611fa3565b600c548152600d54602082015260843593606435612b96565b9260018060a01b03845116600052601160205284604060002055604051956020808801526110bd876110af604082016024356004013560248035016121e0565b03601f19810189528861202b565b6110c960643542612263565b96604051906110d782611fbe565b8782526110e5368486612074565b602083015260408201526110fa368587612074565b60608201528560808201524260a08201528760c08201526024356004013560e082015261112c60243560040135612166565b611139604051918261202b565b602480356004810135835201602082015b602480356004013560051b8135010182106117f457505061010082015260405161117381611ff5565b6000815261012082015286600052600a6020526040600020908051825560208101518051906001600160401b0382116104a45781906111c2826111b96001880154612270565b600188016122c1565b602090601f831160011461178257600092611777575b50508160011b916000199060031b1c19161760018301555b60408101518051906001600160401b0382116104a4578190611222826112196002880154612270565b600288016122c1565b602090601f8311600114611705576000926116fa575b50508160011b916000199060031b1c19161760028301555b60608101518051906001600160401b0382116104a4578190611282826112796003880154612270565b600388016122c1565b602090601f83116001146116885760009261167d575b50508160011b916000199060031b1c19161760038301555b608081015180516004840180546001600160a01b03199081166001600160a01b039384161790915560208301516005860180548316918416919091179055604090920151600685018054909316911617905560a0810151600783015560c0810151600883015560e081015160098301556101008101518051906801000000000000000082116104a457600a84015482600a860155808310611605575b5060200190600a84016000526020600020916000905b828210611522575050505061012001518051906001600160401b0382116104a45761139d82611394600b860154612270565b600b86016122c1565b602090601f8311600114611482579361145593600b8461143c957f7532e9985b123ef8bda3bc40b1a4296f34238889a58a41de23df560b8bfb9bc69c9b99956114639b99600092611477575b50508160011b916000199060031b1c1916179101555b6040805189516001600160a01b0390811682526020808c0151821690830152998201519099169089015261010060608901526101008801916121bf565b85810360808701526024356004013560248035016121e0565b9184830360a08601526121bf565b934260c083015260e08201528033940390a3005b015190508f806113e9565b90600b840160005260206000209160005b601f198516811061150a575093600b6001857f7532e9985b123ef8bda3bc40b1a4296f34238889a58a41de23df560b8bfb9bc69c9b99956114639b99956114559961143c99601f198116106114f1575b505050811b019101556113ff565b015160001960f88460031b161c191690558f80806114e3565b91926020600181928685015181550194019201611493565b80518051906001600160401b0382116104a457611549826115438854612270565b886122c1565b602090601f831160011461159557928260019493602093869560009261158a575b5050600019600383901b1c191690841b1787555b01940191019092611362565b01519050388061156a565b908660005260206000209160005b601f19851681106115ed575083602093600196938796938794601f198116106115d4575b505050811b01875561157e565b015160001960f88460031b161c191690553880806115c7565b919260206001819286850151815501940192016115a3565b600a85016000526020600020908382015b818301811061162657505061134c565b8061163360019254612270565b80611640575b5001611616565b601f811183146116565750600081555b8f611639565b600090828252611674601f60208420920160051c82018583016122aa565b81835555611650565b015190508b80611298565b9250600385016000526020600020906000935b601f19841685106116df576001945083601f198116106116c6575b505050811b0160038301556112b0565b015160001960f88460031b161c191690558b80806116b6565b8181015183556020948501946001909301929091019061169b565b015190508b80611238565b9250600285016000526020600020906000935b601f198416851061175c576001945083601f19811610611743575b505050811b016002830155611250565b015160001960f88460031b161c191690558b8080611733565b81810151835560209485019460019093019290910190611718565b015190508b806111d8565b9250600185016000526020600020906000935b601f19841685106117d9576001945083601f198116106117c0575b505050811b0160018301556111f0565b015160001960f88460031b161c191690558b80806117b0565b81810151835560209485019460019093019290910190611795565b81356001600160401b0381116104355760243501366043820112156104355760209161182b83923690604460248201359101612074565b81520191019061114a565b34610435576020366003190112610435576001600160a01b0361185761213a565b1680600052601160205260406000205460055411156118885760005260116020526020604060002054604051908152f35b6024906040519063e64d908d60e01b82526004820152fd5b346104355760003660031901126104355764ffffffffff8060075460281c16906001918291825b6118d8575b602061097c8484613107565b60ff8084169383836118e987612ac4565b161015611917575083146119015783809301926118c7565b634e487b7160e01b600052601160045260246000fd5b9350506118cc565b346104355760803660031901126104355736602312156104355760405161194581611f88565b608481368211610435576020926004905b838210611967578461097c84612fff565b81358152908401908401611956565b34610435576000366003190112610435576040517f00000000000000000000000000000000000000000000000000000000000000006001600160a01b03168152602090f35b34610435576040366003190112610435576004356001600160401b03602435818111610435576119ef9036906004016120d5565b91906119f9612193565b600554841015611b315783600052602091600a8352600b6040600020019084116104a457611a3184611a2b8354612270565b836122c1565b6000601f8511600114611aa55791611a9591857f2cd30b9efd64638f847bef681e87dfbb567e261d02660c8166a92f33729ab33e969594600091611a9a575b508560011b906000198760031b1c19161790555b6040519383859485528401916121bf565b0390a2005b905082013588611a70565b601f1985169082600052846000209160005b818110611b1a575091611a959391877f2cd30b9efd64638f847bef681e87dfbb567e261d02660c8166a92f33729ab33e9897969410611b00575b5050600185811b019055611a84565b830135600019600388901b60f8161c191690558780611af1565b919286600181928689013581550194019201611ab7565b60405163a86ecdd560e01b815260048101859052602490fd5b3461043557608036600319011261043557611b643661204c565b6001600160401b039060443582811161043557611b859036906004016120ba565b60643592831161043557611ba0611ba69336906004016120ba565b91612742565b005b34610435576000366003190112610435576040600c54600d5482519182526020820152f35b3461043557600036600319011261043557600e546040516001600160a01b039091168152602090f35b34610435576000366003190112610435576020600554604051908152f35b3461043557606036600319011261043557604435801515810361043557611c40906024356004356125af565b60405160209182820192808352815180945260408301938160408260051b8601019301916000955b828710611c755785850386f35b909192938280611c91600193603f198a82030186528851611e6e565b9601920196019592919092611c68565b3461043557602036600319011261043557600435600554811015611cdf576000526006602052602060018060a01b0360406000205416604051908152f35b6024906040519063a86ecdd560e01b82526004820152fd5b3461043557600036600319011261043557600f546040516001600160a01b039091168152602090f35b3461043557600036600319011261043557602064ffffffffff60075460281c16604051908152f35b3461043557602036600319011261043557600435611d64612334565b50600554811015611cdf57600052600a602052611d9b611d876040600020612466565b604051918291602083526020830190611e6e565b0390f35b34610435576000366003190112610435576040517f00000000000000000000000000000000000000000000000000000000000000006001600160a01b03168152602090f35b34610435576000366003190112610435577f00000000000000000000000000000000000000000000000000000000000000006001600160a01b03168152602090f35b60005b838110611e395750506000910152565b8181015183820152602001611e29565b90602091611e6281518092818552858086019101611e26565b601f01601f1916010190565b919082518152602090611eb8611ea6611e94848701516101808087870152850190611e49565b60408701518482036040860152611e49565b60608601518382036060850152611e49565b60808086015180516001600160a01b03908116928501929092526020810151821660a0850152604001511660c08301529360a081015160e083015260c081015190610100918284015260e08101519161012092838501528101519383870361014085015284518088528188019180808360051b8b01019701926000905b838210611f5b575050505050611f58949550015190610160818403910152611e49565b90565b90919293978380611f796001938e601f199082030186528c51611e49565b9a019201920190939291611f35565b608081019081106001600160401b038211176104a457604052565b604081019081106001600160401b038211176104a457604052565b61014081019081106001600160401b038211176104a457604052565b606081019081106001600160401b038211176104a457604052565b602081019081106001600160401b038211176104a457604052565b60a081019081106001600160401b038211176104a457604052565b90601f801991011681019081106001600160401b038211176104a457604052565b6040906003190112610435576040519061206582611fa3565b60043582526024356020830152565b9291926001600160401b0382116104a4576040519161209d601f8201601f19166020018461202b565b829481845281830111610435578281602093846000960137010152565b9080601f8301121561043557816020611f5893359101612074565b9181601f84011215610435578235916001600160401b038311610435576020838186019501011161043557565b906040519161211083611fa3565b826044918211610435576004905b82821061212a57505050565b813581526020918201910161211e565b600435906001600160a01b038216820361043557565b60e435906001600160a01b038216820361043557565b6001600160401b0381116104a45760051b60200190565b6040906003190112610435576004359060243590565b6009546001600160a01b031633036121a757565b60405163118cdaa760e01b8152336004820152602490fd5b908060209392818452848401376000828201840152601f01601f1916010190565b90808352602080930192838260051b850194846000925b858410612208575050505050505090565b9091929394959681810384528735601e19843603018112156104355783018681019190356001600160401b03811161043557803603831361043557612252889283926001956121bf565b9901940194019295949391906121f7565b9190820180921161190157565b90600182811c921680156122a0575b602083101461228a57565b634e487b7160e01b600052602260045260246000fd5b91607f169161227f565b8181106122b5575050565b600081556001016122aa565b9190601f81116122d057505050565b6122fc926000526020600020906020601f840160051c830193106122fe575b601f0160051c01906122aa565b565b90915081906122ef565b9190820391821161190157565b6040519061232282611fda565b60006040838281528260208201520152565b6040519061234182611fbe565b81600081526101206060918260208201528260408201528280820152612365612315565b6080820152600060a0820152600060c0820152600060e0820152826101008201520152565b60001981146119015760010190565b8051156123a65760200190565b634e487b7160e01b600052603260045260246000fd5b80518210156123a65760209160051b010190565b90600092918054916123e183612270565b9182825260019384811690816000146124435750600114612403575b50505050565b90919394506000526020928360002092846000945b83861061242f5750505050010190388080806123fd565b805485870183015294019385908201612418565b9294505050602093945060ff191683830152151560051b010190388080806123fd565b9060409182519061247682611fbe565b8193815483528051600161249782612490818488016123d0565b038361202b565b6020918286015282516124b8816124b181600289016123d0565b038261202b565b8386015282516124cf816124b181600389016123d0565b606086015282516124df81611fda565b60048501546001600160a01b0390811682526005860154811684830152600686015416848201526080860152600784015460a0860152600884015460c0860152600984015460e0860152600a840180549061253982612166565b936125468651958661202b565b82855260009182528082208186015b84841061258d5750505050505061012092612582859361258993610100600b9801525180968193016123d0565b038461202b565b0152565b858381928a516125a1816124b181896123d0565b815201920193019290612555565b600019939284820192909183116119015780830292808404821490151715611901576125db9083612263565b9380850194851161190157849160055495868510156126ef578611156126dd575b6126068484612308565b90600182018092116119015761261b82612166565b9260409261262b8451958661202b565b80855261263a601f1991612166565b0160005b8181106126c657505083976000965b8681111561265f575050505050505050565b8084156126aa575b906126a591600052600a60205261269f866000209961268e6126888261238a565b9b612466565b612698828b6123bc565b52886123bc565b5061238a565b61264d565b506126b58183612308565b908382019182116119015790612667565b6020906126d1612334565b8282890101520161263e565b915080850185811161190157916125fc565b5050505050905060405161270281611ff5565b6000815290565b6001600160a01b039091168152604060208201819052611f5892910190611e49565b64ffffffffff908116600019019190821161190157565b60075492600064ffffffffff94857f00000000000000000000000000000000000000000000000000000000000000009160281c161015612ab25782519360209161279183860196875190612ee4565b15612aa0576001600160a01b037f000000000000000000000000000000000000000000000000000000000000000081169490853b15612a9c57604095838751809263125c7dfb60e11b82528183816127ee60049b338d8401612709565b03925af18015612a9257612a63575b509380939291612821958751808098819463b36543a960e01b835233898401612709565b03917f0000000000000000000000000000000000000000000000000000000000000000165afa938415612a57578194612a28575b50612876855161286481611fda565b87815285858201524287820152613a2d565b9160075491898360281c16936001938486018c8111612a13579069ffffffffff0000000000869495939260281b169069ffffffffff000000000019161760075594839573E1aaC950A6C8d6f8d166Cd9e2AD8062a9E2C4889935b612929575b50505050505050917fd3c3cd829e4e37d5baaf10abace26b24e0046e20500c999380410f807edfcda093916060936129138860075460281c1661272b565b93519651978351941684528301524290820152a3565b8c61293483896130ce565b1685526008808952818b8720558d87841615612a0c57612997928a928d9261296461295e8861272b565b8d6130ce565b93519361297085611fa3565b16895283528c8820548252828201528b51809381926314d2f97b60e11b8352878301612f55565b0381875af4908115612a02579085949392918796916129cf575b5085647fffffffff60ff9293821c16980116949691929394966128d0565b809650898092503d83116129fb575b6129e8818361202b565b81010312610435579351859490856129b1565b503d6129de565b8a513d87823e3d90fd5b50506128d5565b601185634e487b7160e01b6000525260246000fd5b9093508281813d8311612a50575b612a40818361202b565b8101031261043557519238612855565b503d612a36565b508451903d90823e3d90fd5b6001600160401b038194929411612a7f578652916128216127fd565b634e487b7160e01b825260418552602482fd5b87513d86823e3d90fd5b8280fd5b6040516379fae7af60e01b8152600490fd5b60405163b984588b60e01b8152600490fd5b8015612ae55760ff8111611901576001901b9064ffffffffff821161190157565b50600190565b8015612ae557600190602081108216604e8210831617612b4c5781906005925b808211612b2357505081600019048111611901570290565b90928060001904811161190157818416612b43575b800292811c90612b0b565b80920291612b38565b905060050a90565b9081602091031261043557516001600160a01b03811681036104355790565b906002821015612b805752565b634e487b7160e01b600052602160045260246000fd5b9391959490612ba3612315565b506005549260018401600555875194602091612bc4838b0197885190612ee4565b15612aa057606084019360ff80865116956040809b81850190612be985835116612aeb565b99612bf381612aeb565b93519a612bff8c611fa3565b8b52898b0193845260001981019081116119015760058110156123a657548e51630278d37760e21b81526004810192909252995160248201529151604483015284518416606483015293870151831660848201529251821660a4840152511660c48201528a5160e48201528751610104820152306101248201526101448101949094526001600160a01b0391600090848661016481857f000000000000000000000000000000000000000000000000000000000000000089165af1958615612eda578296612ebb575b508380808c5193633634487360e01b8552169485600485015216968760248401521695866044830152336064830152612d046084830189612b73565b858260a48186897f0000000000000000000000000000000000000000000000000000000000000000165af1918215612eb157908592918492612e92575b508b519463431a717560e01b8652600486015260248501528660448501521690816064840152336084840152612d7a60a4840188612b73565b848360c48184887f0000000000000000000000000000000000000000000000000000000000000000165af1928315612e865793612e4a937f60ae5b55fbe14a60c1522de273b7cf937d367c8395a811c3c6cc1eaced4700499997938c8460a09b98612e549a9694612e57575b508a81526006865220856001600160601b038c1b8254161790558c5194612e0c86611fda565b855283850152168a830152819b51985199519586528501906040908160018060a01b0391828151168552826020820151166020860152015116910152565b6080830190612b73565ba3565b612e78919450863d8811612e7f575b612e70818361202b565b810190612b54565b9238612de6565b503d612e66565b508951903d90823e3d90fd5b612eaa919250873d8911612e7f57612e70818361202b565b9038612d41565b8b513d85823e3d90fd5b612ed3919650853d8711612e7f57612e70818361202b565b9438612cc8565b8a513d84823e3d90fd5b907f30644e72e131a029b85045b68181585d2833e84879b9709143e1f593f0000001808080858196099380098180828187620292fc090894620292f80909600108908082811115612f42575b50600091612f3d91612308565b081590565b9050828101809111611901576000612f30565b6040810192916000915b60028310612f6c57505050565b600190825181526020809101920192019190612f5f565b6020612fa391604051809381926314d2f97b60e11b835260048301612f55565b038173E1aaC950A6C8d6f8d166Cd9e2AD8062a9E2C48895af490811561044257600091612fce575090565b906020823d8211612ff7575b81612fe76020938361202b565b81010312612ff457505190565b80fd5b3d9150612fda565b60405163248f667760e01b81529060049060008284015b838210613050575050505060208160848173ec6913b437D8052918ab693b032E467fc6cE2d285af490811561044257600091612fce575090565b600190835181526020809101930191019091613016565b604051630926f44b60e31b815290600090600483015b600583106130b75750505060208160a48173cF3Be78Ff3477926f11155e49889cBeBE7bA42D65af490811561044257600091612fce575090565b60019082518152602080910192019201919061307d565b60ff1663ffffffff0264ffffffffff91828216918203611901578216019081116119015790565b60ff60019116019060ff821161190157565b919060ff928382169160209081841161343d5764ffffffffff9182841691821561342c5761313588916130f5565b1661316c61314282612166565b956040926131528451988961202b565b808852613161601f1991612166565b01368589013761272b565b9060019485808416156000146133f757508083169481861161190157869560005260088552826000205461319f89612399565b52999592995b6000935b6131c4575b505050505050506131c09293506123bc565b5190565b86849a9998979a16888110156133ec57858c88166132b35761321e916131f58651916131ef83611fa3565b8b6123bc565b5181526132018761344f565b828201528551809381926314d2f97b60e11b835260048301612f55565b038173E1aaC950A6C8d6f8d166Cd9e2AD8062a9E2C48895af49081156132a85760009161327b575b509986647fffffffff829d8a9b9c9d61326b849c866132648c6130f5565b16906123bc565b525b821c16950116939a966131a9565b908682813d83116132a1575b613291818361202b565b81010312612ff457505186613246565b503d613287565b84513d6000823e3d90fd5b5082828c6132c0886130f5565b161c1690647fffffffff8d891c1680921160001461331b57509986647fffffffff829d856132fa849c9d9e9f6132f58b6130f5565b6130ce565b166000526008895286600020546133158d866132648c6130f5565b5261326d565b61337991508690846133368f6133309061272b565b896130ce565b166000526008825261335b86600020549187519261335384611fa3565b83528b6123bc565b51828201528551809381926314d2f97b60e11b835260048301612f55565b038173E1aaC950A6C8d6f8d166Cd9e2AD8062a9E2C48895af49081156132a8576000916133bf575b509986647fffffffff829d8a9b9c9d613315849c866132648c6130f5565b908682813d83116133e5575b6133d5818361202b565b81010312612ff4575051866133a1565b503d6133cb565b5086979899506131ae565b947f0ef71f46e11a513c599eed9dd03576c33439bcfb1cee155316f90541e41649ba61342289612399565b52999592996131a5565b945050505050611f5891925061344f565b604051633e104c7760e01b8152600490fd5b60ff168015613a0857600181146139e357600281146139be57600381146139995760048114613974576005811461394f576006811461392a576007811461390557600881146138e057600981146138bb57600a811461389657600b811461387157600c811461384c57600d811461382757600e811461380257600f81146137dd57601081146137b85760118114613793576012811461376e5760138114613749576014811461372457601581146136ff57601681146136da57601781146136b55760188114613690576019811461366b57601a811461364657601b811461362157601c81146135fc57601d81146135d757601e81146135b257601f811461358d57602014613569576040516310a2ea0560e21b8152600490fd5b7f1d90601a0c76d2f39824f6dc198fb3b48cbd0231516c8f6208e56ea741c341f990565b507f216b9fa3ac3724cf1ec6caf5a66dd85cae3aee727e00d2a0a59f273df3401f1090565b507f2b59c2651b412c029efa38f835ac1b1b5bdaf89dcb2e4bc9219e7d77c65e776a90565b507f14b46e659dc4072fc64a18d44911c4a303b45f1296c3cb7dec77f269bee9b5df90565b507f0845dd838ca63b2f68775aac8513bd692d26f511698206f3c6ce2b4100dd8d8f90565b507f132e4ff3e4ba890f1610efd4d2f69700b825514d557b82663878a56e2acef41c90565b507f24cb019b59431c232413f66b041923214f7a8a7489caa05b66860f1c3c76d3b190565b507f1b6367322bac9f24889900d310e2feaa0021516fac77470aea078e89335d3fcf90565b507f19b336a1e0a933e2a8f97d97322dcee843a2d9a2401bece52a3a25ddd5bb6bc990565b507f1d71ada9e49baeb4a2cf26be37d3bc680554995ef6706105e93978ba71cacf9490565b507f2560496c1138c827f1efb407d0cdb9d6ec9539b0957dfb67de2776e6026d630f90565b507f2ce2c1fb109ad6574570826774ecfca3e04866bb5a3963962b873646db6641f390565b507f1713f3e3dc5e2393bd31ccc0cdd8601bdee3198cf34d566bb60cfab13e5a087390565b507f2c849a73ab21c9e88e1d711f221863e2a94eb58f3eb42dde575301451f3ec5c890565b507f1874217e8e1dbc51c571a2db1103bf47c3e66a59305ca48bbcee6ad1c8cc575190565b507f2b8342160822355808db759147a7d6f61de451bd5bb88f9db2eb406ea68b813890565b507f199cd1f5b757c285023767abbe9bbb318da4e1fd375b5a001b54a0f3901ea7d390565b507f128fb9ad5b2d8e694bec0888ff95609c15b2a96ae80a34946c953dc503e46fb690565b507f2ec047dd616221873c234f36461080c3e760644bb519ebdb49eb9645215e0edc90565b507f2582b5cdefe032d75373f0ede9171406137e93e7d44405a0b0a409c1c739138090565b507f1f336d6d45d293180c75964e99a7599d44cac2ad447c202c3e1973b0322cf99090565b507f05e0136534f74776d69646bd0bd94519e63af45734405f479382d8400514c1a690565b507f10f7b76489e9c36644736c33c600d1bcedd465fd0aff3027e67b02e13875272d90565b507f1e73f08f6e5e4bb9c2096cc4587526ebfd033c222f4a27e97119c867c36a0d3a90565b507f1ea63a974336db6c0423e719d3f0e11494266237dda3a40de3cb76104436635990565b507f0690bfb582c7502ff6d15d519740ecd73d652b7a14dc82bfd250613ee8e0407690565b507f30553f8216db90854953edd47602897f897104d5b0d65a5ce000981c51da32e090565b507f11dc55d21b17daf8e60253c2a43d519039ba968733cf7c9d5df6155939e1a6d890565b507f08e4b5d410c8de929132c214ea600b5f252fa14aabb97ea67cda5bb4e0ebeec890565b507f04265868d2e705f48d3ae49f7749e67a587dafdb569c1d7334675496046eaad690565b507f2a06fb0b739b402c34dc752d8417b9cd67b7f7cabe4b06b5d995053791fcede490565b507f06928e817d2804a3713efd102bae900c9ab3e8e0b0c6c20f8613bd3b0423a89190565b507f0ef71f46e11a513c599eed9dd03576c33439bcfb1cee155316f90541e41649ba90565b611f58906040805191613a3f83611f88565b60803684378051518352602081510151602084015260208101518284015201516060820152612fff565b6020611f58926040613b11815194613a8086612010565b60a0368737805151865284815101518587015282815101518387015260608151015160608701526080815101516080870152610120835191613ac183612010565b60a036843760a081510151835260c0815101518784015260e081510151858401526101008151015160608401525101516080820152613b0a835196613b0588611f88565b613067565b8652613067565b8385015281519084015201516060820152612fff56fea264697066735822122098c9a62387052270c389f74ed3af8fed6c0bd8b6c7bbe0e56f7098c0470e67cb64736f6c63430008140033",
  "deployedBytecode": "0x608080604052600436101561001357600080fd5b60003560e01c908163055575eb14611de457508063079410db14611d9f5780631096c30e14611d48578063122db15314611d2057806313fb893214611cf75780631a8cbcaa14611ca15780631b6ef3c514611c145780632b78657114611bf65780632b7ac3f314611bcd57806331e766a514611ba85780633364120a14611b4a5780633364c4c8146119bb578063343393b5146119765780633dfb88b21461191f578063423f3e19146118a057806346e47f9a146118365780634d5da86b14610f4b57806358bfc37914610e345780635bb9399514610e0457806362a361bb14610dd757806362b31f1e14610d9257806364e0ece114610c70578063652c76e414610c32578063683f3dc314610c1657806369525c2514610bed5780636b4575e214610af3578063715018a614610a965780637d0a81c814610a555780638a2a3dfb146109bc5780638da5cb5b146109935780639cfced9714610934578063aab4a670146108ef578063ac2f0074146108bb578063ac98e5df14610879578063b686872014610849578063b87802c814610820578063bea140b314610730578063c8cf9ab2146106f6578063d7a71b9a146106be578063df82635a14610683578063edbfe83f14610553578063f2fde38b146104ca5763fc53003a146101f857600080fd5b3461043557610280366003190112610435576102133661204c565b6001600160401b0390604435828111610435576102349036906004016120ba565b6064358381116104355761024c9036906004016120ba565b610200366083190112610435576040519360c08501858110828211176104a457604052608435855260a435602086015260c435604086015260e4356060860152366101231215610435576040516102a281611f88565b806101849136831161043557610104905b8382106104ba5750506080870152366101a3121561043557604051916101008301908111838210176104a4576040528190366102841161043557905b610284821061049457505060a08501908152835160005260126020526040600020946020850195865160005260205260ff604060002054166104825760018060a01b036010541690805190602081015193604082015191608060608201519101519151926040519687956350de0e5760e01b87526004870152602486015260448501526064840152608483016000905b600482106104685750505061010482016000905b6008821061044e57505050610204816020935afa90811561044257600091610402575b506103f0576103c59183612742565b516000526012602052604060002090516000526020526040600020600160ff19825416179055600080f35b6040516306396fb560e31b8152600490fd5b90506020813d60201161043a575b8161041d6020938361202b565b810103126104355751801515810361043557386103b6565b600080fd5b3d9150610410565b6040513d6000823e3d90fd5b829350602080916001939451815201930191018492610393565b82518152869450602092830192600192909201910161037f565b604051632e13e04560e01b8152600490fd5b81358152602091820191016102ef565b634e487b7160e01b600052604160045260246000fd5b81358152602091820191016102b3565b34610435576020366003190112610435576104e361213a565b6104eb612193565b6001600160a01b0390811690811561053a57600954826001600160601b0360a01b821617600955167f8be0079c531659141344cd1fd0a4f28419497f9722a3daafe3b4186f6b6457e0600080a3005b604051631e4fbdf760e01b815260006004820152602490fd5b346104355760403660031901126104355736602312156104355761057636612102565b6040519061058382611ff5565b60405161058f81611fbe565b610140928336833752604051916105a583611fa3565b60008352600060208094015282604051926105bf84611fbe565b8236853780518452015183830152604051906105da82611fa3565b7f171e826ad4a870fd925e0bf0e87884e70e080879c2205ef10114f28a3b6f6dd78252838201907f2bd407d897fbbca9f88adfd2d15252e69de8c1564eb4d3d27162e259172f1a1d82526040519361063185611ff5565b845261063d8385613a69565b9260405194518590966000915b600a831061066e575050506101a09550519084015251610160830152610180820152f35b81806001928b5181520199019201919761064a565b346104355760003660031901126104355760206040517f00000000000000000000000000000000000000000000000000000000000000008152f35b34610435576106cc3661217d565b906000526012602052604060002090600052602052602060ff604060002054166040519015158152f35b34610435576020366003190112610435576001600160a01b0361071761213a565b1660005260116020526020604060002054604051908152f35b346104355760603660031901126104355736602312156104355760405161075681611fda565b606481368211610435576004905b8282106108105750506040516304b98e1d60e31b8152918290600090600483015b600383106107f6575050506020918173__$fa059fb1da6d850ca47ea49359bfe89f78$__5af48015610442576000906107c4575b602090604051908152f35b506020813d82116107ee575b816107dd6020938361202b565b8101031261043557602090516107b9565b3d91506107d0565b815181528593506001929092019160209182019101610785565b8135815260209182019101610764565b346104355760203660031901126104355760043560058110156104355760209054604051908152f35b3461043557600036600319011261043557604060075481519064ffffffffff90818116835260281c166020820152f35b34610435576000366003190112610435576080600b5460ff604051918181168352818160081c166020840152818160101c16604084015260181c166060820152f35b34610435576020366003190112610435576004356000526006602052602060018060a01b0360406000205416604051908152f35b34610435576000366003190112610435576040517f00000000000000000000000000000000000000000000000000000000000000006001600160a01b03168152602090f35b346104355760a03660031901126104355736602312156104355760405161095a81612010565b60a481368211610435576020926004905b838210610984578461097c84613067565b604051908152f35b8135815290840190840161096b565b34610435576000366003190112610435576009546040516001600160a01b039091168152602090f35b3461043557366003190161018081126104355761014013610435576040516109e381611ff5565b366023121561043557604051906109f982611fbe565b8161014492368411610435576004905b848210610a4557505081526040366101431901126104355760209161097c9160405191610a3583611fa3565b3582526101643584830152613a69565b8135815260209182019101610a09565b3461043557608036600319011261043557602061097c604051610a7781611fda565b610a803661204c565b8152604435838201526064356040820152613a2d565b3461043557600036600319011261043557610aaf612193565b600980546001600160a01b031981169091556000906001600160a01b03167f8be0079c531659141344cd1fd0a4f28419497f9722a3daafe3b4186f6b6457e08280a3005b346104355761014036600319011261043557608036602319011261043557604051610b1d81611f88565b60243560ff8116810361043557815260443560ff8116810361043557602082015260643560ff8116810361043557604082015260843560ff8116810361043557606082015260403660a31901126104355760405190610b7b82611fa3565b60a435825260c4356020830152610b90612150565b610104356001600160a01b0381168103610435576101243591600283101561043557606094610bc194600435612b96565b6040805182516001600160a01b0390811682526020808501518216908301529282015190921690820152f35b34610435576000366003190112610435576010546040516001600160a01b039091168152602090f35b34610435576000366003190112610435576020604051600a8152f35b3461043557600036600319011261043557602060405160ff7f0000000000000000000000000000000000000000000000000000000000000000168152f35b3461043557366003190161010081126104355760801361043557604051610c9681611f88565b60043560ff811681036104355781526024359060ff8216820361043557602081019182526044359060ff8216820361043557604081019182526064359260ff841684036104355760608201938452604036608319011261043557604051610cfc81611fa3565b6084358152602081019160a435835260c4359560018060a01b03958688168098036104355760ff610d2b612150565b96610d34612193565b511663ff00000062ff000061ff00600b54965160081b16935160101b16935160181b169363ffffffff191617171717600b5551600c5551600d556001600160601b0360a01b9283600e541617600e551690600f541617600f55600080f35b34610435576000366003190112610435576040517f00000000000000000000000000000000000000000000000000000000000000006001600160a01b03168152602090f35b3461043557604036600319011261043557366023121561043557602061097c610dff36612102565b612f83565b3461043557602061097c610e173661217d565b60405191610e2483611fa3565b6040368437825283820152612f83565b346104355760208060031936011261043557600435906001600160401b038211610435573660238301121561043557816004013591610e7283612166565b90610e80604051928361202b565b8382528282016024819560051b83010191368311610435576024859101915b838310610f3b575050505060405182810180925190949060005b818110610f275785806000610eed8888610edc818e03601f19810183528261202b565b604051928392839251928391611e26565b8101039060025afa15610442577f30644e72e131a029b85045b68181585d2833e84879b9709143e1f593f000000160005106604051908152f35b825187529585019591850191600101610eb9565b8235815291810191859101610e9f565b346104355760a0366003190112610435576004356001600160401b03811161043557610f7b9036906004016120d5565b906001600160401b036024351161043557366023602435011215610435576001600160401b0360243560040135116104355736602480356004013560051b8135010111610435576044356001600160401b03811161043557610fe19036906004016120d5565b91906002608435101561043557610ff6612193565b600554600e54600f5460405192959261106f9290916001600160a01b03908116911661102183611f88565b60ff600b548181168552818160081c166020860152818160101c16604086015260181c16606084015260405161105681611fa3565b600c548152600d54602082015260843593606435612b96565b9260018060a01b03845116600052601160205284604060002055604051956020808801526110bd876110af604082016024356004013560248035016121e0565b03601f19810189528861202b565b6110c960643542612263565b96604051906110d782611fbe565b8782526110e5368486612074565b602083015260408201526110fa368587612074565b60608201528560808201524260a08201528760c08201526024356004013560e082015261112c60243560040135612166565b611139604051918261202b565b602480356004810135835201602082015b602480356004013560051b8135010182106117f457505061010082015260405161117381611ff5565b6000815261012082015286600052600a6020526040600020908051825560208101518051906001600160401b0382116104a45781906111c2826111b96001880154612270565b600188016122c1565b602090601f831160011461178257600092611777575b50508160011b916000199060031b1c19161760018301555b60408101518051906001600160401b0382116104a4578190611222826112196002880154612270565b600288016122c1565b602090601f8311600114611705576000926116fa575b50508160011b916000199060031b1c19161760028301555b60608101518051906001600160401b0382116104a4578190611282826112796003880154612270565b600388016122c1565b602090601f83116001146116885760009261167d575b50508160011b916000199060031b1c19161760038301555b608081015180516004840180546001600160a01b03199081166001600160a01b039384161790915560208301516005860180548316918416919091179055604090920151600685018054909316911617905560a0810151600783015560c0810151600883015560e081015160098301556101008101518051906801000000000000000082116104a457600a84015482600a860155808310611605575b5060200190600a84016000526020600020916000905b828210611522575050505061012001518051906001600160401b0382116104a45761139d82611394600b860154612270565b600b86016122c1565b602090601f8311600114611482579361145593600b8461143c957f7532e9985b123ef8bda3bc40b1a4296f34238889a58a41de23df560b8bfb9bc69c9b99956114639b99600092611477575b50508160011b916000199060031b1c1916179101555b6040805189516001600160a01b0390811682526020808c0151821690830152998201519099169089015261010060608901526101008801916121bf565b85810360808701526024356004013560248035016121e0565b9184830360a08601526121bf565b934260c083015260e08201528033940390a3005b015190508f806113e9565b90600b840160005260206000209160005b601f198516811061150a575093600b6001857f7532e9985b123ef8bda3bc40b1a4296f34238889a58a41de23df560b8bfb9bc69c9b99956114639b99956114559961143c99601f198116106114f1575b505050811b019101556113ff565b015160001960f88460031b161c191690558f80806114e3565b91926020600181928685015181550194019201611493565b80518051906001600160401b0382116104a457611549826115438854612270565b886122c1565b602090601f831160011461159557928260019493602093869560009261158a575b5050600019600383901b1c191690841b1787555b01940191019092611362565b01519050388061156a565b908660005260206000209160005b601f19851681106115ed575083602093600196938796938794601f198116106115d4575b505050811b01875561157e565b015160001960f88460031b161c191690553880806115c7565b919260206001819286850151815501940192016115a3565b600a85016000526020600020908382015b818301811061162657505061134c565b8061163360019254612270565b80611640575b5001611616565b601f811183146116565750600081555b8f611639565b600090828252611674601f60208420920160051c82018583016122aa565b81835555611650565b015190508b80611298565b9250600385016000526020600020906000935b601f19841685106116df576001945083601f198116106116c6575b505050811b0160038301556112b0565b015160001960f88460031b161c191690558b80806116b6565b8181015183556020948501946001909301929091019061169b565b015190508b80611238565b9250600285016000526020600020906000935b601f198416851061175c576001945083601f19811610611743575b505050811b016002830155611250565b015160001960f88460031b161c191690558b8080611733565b81810151835560209485019460019093019290910190611718565b015190508b806111d8565b9250600185016000526020600020906000935b601f19841685106117d9576001945083601f198116106117c0575b505050811b0160018301556111f0565b015160001960f88460031b161c191690558b80806117b0565b81810151835560209485019460019093019290910190611795565b81356001600160401b0381116104355760243501366043820112156104355760209161182b83923690604460248201359101612074565b81520191019061114a565b34610435576020366003190112610435576001600160a01b0361185761213a565b1680600052601160205260406000205460055411156118885760005260116020526020604060002054604051908152f35b6024906040519063e64d908d60e01b82526004820152fd5b346104355760003660031901126104355764ffffffffff8060075460281c16906001918291825b6118d8575b602061097c8484613107565b60ff8084169383836118e987612ac4565b161015611917575083146119015783809301926118c7565b634e487b7160e01b600052601160045260246000fd5b9350506118cc565b346104355760803660031901126104355736602312156104355760405161194581611f88565b608481368211610435576020926004905b838210611967578461097c84612fff565b81358152908401908401611956565b34610435576000366003190112610435576040517f00000000000000000000000000000000000000000000000000000000000000006001600160a01b03168152602090f35b34610435576040366003190112610435576004356001600160401b03602435818111610435576119ef9036906004016120d5565b91906119f9612193565b600554841015611b315783600052602091600a8352600b6040600020019084116104a457611a3184611a2b8354612270565b836122c1565b6000601f8511600114611aa55791611a9591857f2cd30b9efd64638f847bef681e87dfbb567e261d02660c8166a92f33729ab33e969594600091611a9a575b508560011b906000198760031b1c19161790555b6040519383859485528401916121bf565b0390a2005b905082013588611a70565b601f1985169082600052846000209160005b818110611b1a575091611a959391877f2cd30b9efd64638f847bef681e87dfbb567e261d02660c8166a92f33729ab33e9897969410611b00575b5050600185811b019055611a84565b830135600019600388901b60f8161c191690558780611af1565b919286600181928689013581550194019201611ab7565b60405163a86ecdd560e01b815260048101859052602490fd5b3461043557608036600319011261043557611b643661204c565b6001600160401b039060443582811161043557611b859036906004016120ba565b60643592831161043557611ba0611ba69336906004016120ba565b91612742565b005b34610435576000366003190112610435576040600c54600d5482519182526020820152f35b3461043557600036600319011261043557600e546040516001600160a01b039091168152602090f35b34610435576000366003190112610435576020600554604051908152f35b3461043557606036600319011261043557604435801515810361043557611c40906024356004356125af565b60405160209182820192808352815180945260408301938160408260051b8601019301916000955b828710611c755785850386f35b909192938280611c91600193603f198a82030186528851611e6e565b9601920196019592919092611c68565b3461043557602036600319011261043557600435600554811015611cdf576000526006602052602060018060a01b0360406000205416604051908152f35b6024906040519063a86ecdd560e01b82526004820152fd5b3461043557600036600319011261043557600f546040516001600160a01b039091168152602090f35b3461043557600036600319011261043557602064ffffffffff60075460281c16604051908152f35b3461043557602036600319011261043557600435611d64612334565b50600554811015611cdf57600052600a602052611d9b611d876040600020612466565b604051918291602083526020830190611e6e565b0390f35b34610435576000366003190112610435576040517f00000000000000000000000000000000000000000000000000000000000000006001600160a01b03168152602090f35b34610435576000366003190112610435577f00000000000000000000000000000000000000000000000000000000000000006001600160a01b03168152602090f35b60005b838110611e395750506000910152565b8181015183820152602001611e29565b90602091611e6281518092818552858086019101611e26565b601f01601f1916010190565b919082518152602090611eb8611ea6611e94848701516101808087870152850190611e49565b60408701518482036040860152611e49565b60608601518382036060850152611e49565b60808086015180516001600160a01b03908116928501929092526020810151821660a0850152604001511660c08301529360a081015160e083015260c081015190610100918284015260e08101519161012092838501528101519383870361014085015284518088528188019180808360051b8b01019701926000905b838210611f5b575050505050611f58949550015190610160818403910152611e49565b90565b90919293978380611f796001938e601f199082030186528c51611e49565b9a019201920190939291611f35565b608081019081106001600160401b038211176104a457604052565b604081019081106001600160401b038211176104a457604052565b61014081019081106001600160401b038211176104a457604052565b606081019081106001600160401b038211176104a457604052565b602081019081106001600160401b038211176104a457604052565b60a081019081106001600160401b038211176104a457604052565b90601f801991011681019081106001600160401b038211176104a457604052565b6040906003190112610435576040519061206582611fa3565b60043582526024356020830152565b9291926001600160401b0382116104a4576040519161209d601f8201601f19166020018461202b565b829481845281830111610435578281602093846000960137010152565b9080601f8301121561043557816020611f5893359101612074565b9181601f84011215610435578235916001600160401b038311610435576020838186019501011161043557565b906040519161211083611fa3565b826044918211610435576004905b82821061212a57505050565b813581526020918201910161211e565b600435906001600160a01b038216820361043557565b60e435906001600160a01b038216820361043557565b6001600160401b0381116104a45760051b60200190565b6040906003190112610435576004359060243590565b6009546001600160a01b031633036121a757565b60405163118cdaa760e01b8152336004820152602490fd5b908060209392818452848401376000828201840152601f01601f1916010190565b90808352602080930192838260051b850194846000925b858410612208575050505050505090565b9091929394959681810384528735601e19843603018112156104355783018681019190356001600160401b03811161043557803603831361043557612252889283926001956121bf565b9901940194019295949391906121f7565b9190820180921161190157565b90600182811c921680156122a0575b602083101461228a57565b634e487b7160e01b600052602260045260246000fd5b91607f169161227f565b8181106122b5575050565b600081556001016122aa565b9190601f81116122d057505050565b6122fc926000526020600020906020601f840160051c830193106122fe575b601f0160051c01906122aa565b565b90915081906122ef565b9190820391821161190157565b6040519061232282611fda565b60006040838281528260208201520152565b6040519061234182611fbe565b81600081526101206060918260208201528260408201528280820152612365612315565b6080820152600060a0820152600060c0820152600060e0820152826101008201520152565b60001981146119015760010190565b8051156123a65760200190565b634e487b7160e01b600052603260045260246000fd5b80518210156123a65760209160051b010190565b90600092918054916123e183612270565b9182825260019384811690816000146124435750600114612403575b50505050565b90919394506000526020928360002092846000945b83861061242f5750505050010190388080806123fd565b805485870183015294019385908201612418565b9294505050602093945060ff191683830152151560051b010190388080806123fd565b9060409182519061247682611fbe565b8193815483528051600161249782612490818488016123d0565b038361202b565b6020918286015282516124b8816124b181600289016123d0565b038261202b565b8386015282516124cf816124b181600389016123d0565b606086015282516124df81611fda565b60048501546001600160a01b0390811682526005860154811684830152600686015416848201526080860152600784015460a0860152600884015460c0860152600984015460e0860152600a840180549061253982612166565b936125468651958661202b565b82855260009182528082208186015b84841061258d5750505050505061012092612582859361258993610100600b9801525180968193016123d0565b038461202b565b0152565b858381928a516125a1816124b181896123d0565b815201920193019290612555565b600019939284820192909183116119015780830292808404821490151715611901576125db9083612263565b9380850194851161190157849160055495868510156126ef578611156126dd575b6126068484612308565b90600182018092116119015761261b82612166565b9260409261262b8451958661202b565b80855261263a601f1991612166565b0160005b8181106126c657505083976000965b8681111561265f575050505050505050565b8084156126aa575b906126a591600052600a60205261269f866000209961268e6126888261238a565b9b612466565b612698828b6123bc565b52886123bc565b5061238a565b61264d565b506126b58183612308565b908382019182116119015790612667565b6020906126d1612334565b8282890101520161263e565b915080850185811161190157916125fc565b5050505050905060405161270281611ff5565b6000815290565b6001600160a01b039091168152604060208201819052611f5892910190611e49565b64ffffffffff908116600019019190821161190157565b60075492600064ffffffffff94857f00000000000000000000000000000000000000000000000000000000000000009160281c161015612ab25782519360209161279183860196875190612ee4565b15612aa0576001600160a01b037f000000000000000000000000000000000000000000000000000000000000000081169490853b15612a9c57604095838751809263125c7dfb60e11b82528183816127ee60049b338d8401612709565b03925af18015612a9257612a63575b509380939291612821958751808098819463b36543a960e01b835233898401612709565b03917f0000000000000000000000000000000000000000000000000000000000000000165afa938415612a57578194612a28575b50612876855161286481611fda565b87815285858201524287820152613a2d565b9160075491898360281c16936001938486018c8111612a13579069ffffffffff0000000000869495939260281b169069ffffffffff000000000019161760075594839573__$1540826e134b1b69b7091c82576ee3aadd$__935b612929575b50505050505050917fd3c3cd829e4e37d5baaf10abace26b24e0046e20500c999380410f807edfcda093916060936129138860075460281c1661272b565b93519651978351941684528301524290820152a3565b8c61293483896130ce565b1685526008808952818b8720558d87841615612a0c57612997928a928d9261296461295e8861272b565b8d6130ce565b93519361297085611fa3565b16895283528c8820548252828201528b51809381926314d2f97b60e11b8352878301612f55565b0381875af4908115612a02579085949392918796916129cf575b5085647fffffffff60ff9293821c16980116949691929394966128d0565b809650898092503d83116129fb575b6129e8818361202b565b81010312610435579351859490856129b1565b503d6129de565b8a513d87823e3d90fd5b50506128d5565b601185634e487b7160e01b6000525260246000fd5b9093508281813d8311612a50575b612a40818361202b565b8101031261043557519238612855565b503d612a36565b508451903d90823e3d90fd5b6001600160401b038194929411612a7f578652916128216127fd565b634e487b7160e01b825260418552602482fd5b87513d86823e3d90fd5b8280fd5b6040516379fae7af60e01b8152600490fd5b60405163b984588b60e01b8152600490fd5b8015612ae55760ff8111611901576001901b9064ffffffffff821161190157565b50600190565b8015612ae557600190602081108216604e8210831617612b4c5781906005925b808211612b2357505081600019048111611901570290565b90928060001904811161190157818416612b43575b800292811c90612b0b565b80920291612b38565b905060050a90565b9081602091031261043557516001600160a01b03811681036104355790565b906002821015612b805752565b634e487b7160e01b600052602160045260246000fd5b9391959490612ba3612315565b506005549260018401600555875194602091612bc4838b0197885190612ee4565b15612aa057606084019360ff80865116956040809b81850190612be985835116612aeb565b99612bf381612aeb565b93519a612bff8c611fa3565b8b52898b0193845260001981019081116119015760058110156123a657548e51630278d37760e21b81526004810192909252995160248201529151604483015284518416606483015293870151831660848201529251821660a4840152511660c48201528a5160e48201528751610104820152306101248201526101448101949094526001600160a01b0391600090848661016481857f000000000000000000000000000000000000000000000000000000000000000089165af1958615612eda578296612ebb575b508380808c5193633634487360e01b8552169485600485015216968760248401521695866044830152336064830152612d046084830189612b73565b858260a48186897f0000000000000000000000000000000000000000000000000000000000000000165af1918215612eb157908592918492612e92575b508b519463431a717560e01b8652600486015260248501528660448501521690816064840152336084840152612d7a60a4840188612b73565b848360c48184887f0000000000000000000000000000000000000000000000000000000000000000165af1928315612e865793612e4a937f60ae5b55fbe14a60c1522de273b7cf937d367c8395a811c3c6cc1eaced4700499997938c8460a09b98612e549a9694612e57575b508a81526006865220856001600160601b038c1b8254161790558c5194612e0c86611fda565b855283850152168a830152819b51985199519586528501906040908160018060a01b0391828151168552826020820151166020860152015116910152565b6080830190612b73565ba3565b612e78919450863d8811612e7f575b612e70818361202b565b810190612b54565b9238612de6565b503d612e66565b508951903d90823e3d90fd5b612eaa919250873d8911612e7f57612e70818361202b565b9038612d41565b8b513d85823e3d90fd5b612ed3919650853d8711612e7f57612e70818361202b565b9438612cc8565b8a513d84823e3d90fd5b907f30644e72e131a029b85045b68181585d2833e84879b9709143e1f593f0000001808080858196099380098180828187620292fc090894620292f80909600108908082811115612f42575b50600091612f3d91612308565b081590565b9050828101809111611901576000612f30565b6040810192916000915b60028310612f6c57505050565b600190825181526020809101920192019190612f5f565b6020612fa391604051809381926314d2f97b60e11b835260048301612f55565b038173__$1540826e134b1b69b7091c82576ee3aadd$__5af490811561044257600091612fce575090565b906020823d8211612ff7575b81612fe76020938361202b565b81010312612ff457505190565b80fd5b3d9150612fda565b60405163248f667760e01b81529060049060008284015b838210613050575050505060208160848173__$e61c65d9562aef5fa6ab22c0f787cf1e30$__5af490811561044257600091612fce575090565b600190835181526020809101930191019091613016565b604051630926f44b60e31b815290600090600483015b600583106130b75750505060208160a48173__$46fbdf6658faf65265971bdad66851b86c$__5af490811561044257600091612fce575090565b60019082518152602080910192019201919061307d565b60ff1663ffffffff0264ffffffffff91828216918203611901578216019081116119015790565b60ff60019116019060ff821161190157565b919060ff928382169160209081841161343d5764ffffffffff9182841691821561342c5761313588916130f5565b1661316c61314282612166565b956040926131528451988961202b565b808852613161601f1991612166565b01368589013761272b565b9060019485808416156000146133f757508083169481861161190157869560005260088552826000205461319f89612399565b52999592995b6000935b6131c4575b505050505050506131c09293506123bc565b5190565b86849a9998979a16888110156133ec57858c88166132b35761321e916131f58651916131ef83611fa3565b8b6123bc565b5181526132018761344f565b828201528551809381926314d2f97b60e11b835260048301612f55565b038173__$1540826e134b1b69b7091c82576ee3aadd$__5af49081156132a85760009161327b575b509986647fffffffff829d8a9b9c9d61326b849c866132648c6130f5565b16906123bc565b525b821c16950116939a966131a9565b908682813d83116132a1575b613291818361202b565b81010312612ff457505186613246565b503d613287565b84513d6000823e3d90fd5b5082828c6132c0886130f5565b161c1690647fffffffff8d891c1680921160001461331b57509986647fffffffff829d856132fa849c9d9e9f6132f58b6130f5565b6130ce565b166000526008895286600020546133158d866132648c6130f5565b5261326d565b61337991508690846133368f6133309061272b565b896130ce565b166000526008825261335b86600020549187519261335384611fa3565b83528b6123bc565b51828201528551809381926314d2f97b60e11b835260048301612f55565b038173__$1540826e134b1b69b7091c82576ee3aadd$__5af49081156132a8576000916133bf575b509986647fffffffff829d8a9b9c9d613315849c866132648c6130f5565b908682813d83116133e5575b6133d5818361202b565b81010312612ff4575051866133a1565b503d6133cb565b5086979899506131ae565b947f0ef71f46e11a513c599eed9dd03576c33439bcfb1cee155316f90541e41649ba61342289612399565b52999592996131a5565b945050505050611f5891925061344f565b604051633e104c7760e01b8152600490fd5b60ff168015613a0857600181146139e357600281146139be57600381146139995760048114613974576005811461394f576006811461392a576007811461390557600881146138e057600981146138bb57600a811461389657600b811461387157600c811461384c57600d811461382757600e811461380257600f81146137dd57601081146137b85760118114613793576012811461376e5760138114613749576014811461372457601581146136ff57601681146136da57601781146136b55760188114613690576019811461366b57601a811461364657601b811461362157601c81146135fc57601d81146135d757601e81146135b257601f811461358d57602014613569576040516310a2ea0560e21b8152600490fd5b7f1d90601a0c76d2f39824f6dc198fb3b48cbd0231516c8f6208e56ea741c341f990565b507f216b9fa3ac3724cf1ec6caf5a66dd85cae3aee727e00d2a0a59f273df3401f1090565b507f2b59c2651b412c029efa38f835ac1b1b5bdaf89dcb2e4bc9219e7d77c65e776a90565b507f14b46e659dc4072fc64a18d44911c4a303b45f1296c3cb7dec77f269bee9b5df90565b507f0845dd838ca63b2f68775aac8513bd692d26f511698206f3c6ce2b4100dd8d8f90565b507f132e4ff3e4ba890f1610efd4d2f69700b825514d557b82663878a56e2acef41c90565b507f24cb019b59431c232413f66b041923214f7a8a7489caa05b66860f1c3c76d3b190565b507f1b6367322bac9f24889900d310e2feaa0021516fac77470aea078e89335d3fcf90565b507f19b336a1e0a933e2a8f97d97322dcee843a2d9a2401bece52a3a25ddd5bb6bc990565b507f1d71ada9e49baeb4a2cf26be37d3bc680554995ef6706105e93978ba71cacf9490565b507f2560496c1138c827f1efb407d0cdb9d6ec9539b0957dfb67de2776e6026d630f90565b507f2ce2c1fb109ad6574570826774ecfca3e04866bb5a3963962b873646db6641f390565b507f1713f3e3dc5e2393bd31ccc0cdd8601bdee3198cf34d566bb60cfab13e5a087390565b507f2c849a73ab21c9e88e1d711f221863e2a94eb58f3eb42dde575301451f3ec5c890565b507f1874217e8e1dbc51c571a2db1103bf47c3e66a59305ca48bbcee6ad1c8cc575190565b507f2b8342160822355808db759147a7d6f61de451bd5bb88f9db2eb406ea68b813890565b507f199cd1f5b757c285023767abbe9bbb318da4e1fd375b5a001b54a0f3901ea7d390565b507f128fb9ad5b2d8e694bec0888ff95609c15b2a96ae80a34946c953dc503e46fb690565b507f2ec047dd616221873c234f36461080c3e760644bb519ebdb49eb9645215e0edc90565b507f2582b5cdefe032d75373f0ede9171406137e93e7d44405a0b0a409c1c739138090565b507f1f336d6d45d293180c75964e99a7599d44cac2ad447c202c3e1973b0322cf99090565b507f05e0136534f74776d69646bd0bd94519e63af45734405f479382d8400514c1a690565b507f10f7b76489e9c36644736c33c600d1bcedd465fd0aff3027e67b02e13875272d90565b507f1e73f08f6e5e4bb9c2096cc4587526ebfd033c222f4a27e97119c867c36a0d3a90565b507f1ea63a974336db6c0423e719d3f0e11494266237dda3a40de3cb76104436635990565b507f0690bfb582c7502ff6d15d519740ecd73d652b7a14dc82bfd250613ee8e0407690565b507f30553f8216db90854953edd47602897f897104d5b0d65a5ce000981c51da32e090565b507f11dc55d21b17daf8e60253c2a43d519039ba968733cf7c9d5df6155939e1a6d890565b507f08e4b5d410c8de929132c214ea600b5f252fa14aabb97ea67cda5bb4e0ebeec890565b507f04265868d2e705f48d3ae49f7749e67a587dafdb569c1d7334675496046eaad690565b507f2a06fb0b739b402c34dc752d8417b9cd67b7f7cabe4b06b5d995053791fcede490565b507f06928e817d2804a3713efd102bae900c9ab3e8e0b0c6c20f8613bd3b0423a89190565b507f0ef71f46e11a513c599eed9dd03576c33439bcfb1cee155316f90541e41649ba90565b611f58906040805191613a3f83611f88565b60803684378051518352602081510151602084015260208101518284015201516060820152612fff565b6020611f58926040613b11815194613a8086612010565b60a0368737805151865284815101518587015282815101518387015260608151015160608701526080815101516080870152610120835191613ac183612010565b60a036843760a081510151835260c0815101518784015260e081510151858401526101008151015160608401525101516080820152613b0a835196613b0588611f88565b613067565b8652613067565b8385015281519084015201516060820152612fff56fea264697066735822122098c9a62387052270c389f74ed3af8fed6c0bd8b6c7bbe0e56f7098c0470e67cb64736f6c63430008140033",
  "libraries": {
    "PoseidonT3": "0xE1aaC950A6C8d6f8d166Cd9e2AD8062a9E2C4889",
    "PoseidonT4": "0xDc5F639eb97dC09EFFf2112C5b4218984905d11A",
    "PoseidonT5": "0xec6913b437D8052918ab693b032E467fc6cE2d28",
    "PoseidonT6": "0xcF3Be78Ff3477926f11155e49889cBeBE7bA42D6"
  },
  "devdoc": {
    "errors": {
      "OwnableInvalidOwner(address)": [
        {
          "details": "The owner is not a valid owner account. (eg. `address(0)`)"
        }
      ],
      "OwnableUnauthorizedAccount(address)": [
        {
          "details": "The caller account is not authorized to perform an operation."
        }
      ]
    },
    "kind": "dev",
    "methods": {
      "deployPoll(uint256,(uint8,uint8,uint8,uint8),(uint256,uint256),address,address,uint8)": {
        "params": {
          "_coordinatorPubKey": "The coordinator's public key",
          "_duration": "How long should the Poll last for",
          "_mode": "Voting mode",
          "_treeDepths": "The depth of the Merkle trees",
          "_verifier": "The Verifier Contract",
          "_vkRegistry": "The VkRegistry Contract"
        },
        "returns": {
          "pollAddr": "a new Poll contract address"
        }
      },
      "getPoll(uint256)": {
        "params": {
          "_pollId": "The identifier of the Poll to retrieve"
        },
        "returns": {
          "poll": "The Poll contract object"
        }
      },
      "getStateTreeRoot()": {
        "returns": {
          "root": "The Merkle root"
        }
      },
      "hash2(uint256[2])": {
        "params": {
          "array": "An array of two uint256 elements."
        },
        "returns": {
          "result": "The Poseidon hash of the two elements."
        }
      },
      "hash3(uint256[3])": {
        "params": {
          "array": "An array of three uint256 elements."
        },
        "returns": {
          "result": "The Poseidon hash of the three elements."
        }
      },
      "hash4(uint256[4])": {
        "params": {
          "array": "An array of four uint256 elements."
        },
        "returns": {
          "result": "The Poseidon hash of the four elements."
        }
      },
      "hash5(uint256[5])": {
        "params": {
          "array": "An array of five uint256 elements."
        },
        "returns": {
          "result": "The Poseidon hash of the five elements."
        }
      },
      "hashLeftRight(uint256,uint256)": {
        "params": {
          "left": "the first element to hash.",
          "right": "the second element to hash."
        },
        "returns": {
          "result": "The Poseidon hash of the two elements."
        }
      },
      "hashMessageAndEncPubKey((uint256[10]),(uint256,uint256))": {
        "params": {
          "_encPubKey": "the encryption public key to be hashed",
          "_message": "the message to be hashed"
        },
        "returns": {
          "msgHash": "The hash of the message and the encryption public key"
        }
      },
      "hashStateLeaf(((uint256,uint256),uint256,uint256))": {
        "params": {
          "_stateLeaf": "the state leaf to be hashed"
        },
        "returns": {
          "ciphertext": "The hash of the state leaf"
        }
      },
      "numSignUps()": {
        "returns": {
          "signUps": "numsignUps The number of signups"
        }
      },
      "owner()": {
        "details": "Returns the address of the current owner."
      },
      "padAndHashMessage(uint256[2])": {
        "params": {
          "dataToPad": "the data to be padded"
        },
        "returns": {
          "message": "The padded message",
          "msgHash": "The hash of the padded message and encryption key",
          "padKey": "The padding public key"
        }
      },
      "renounceOwnership()": {
        "details": "Leaves the contract without owner. It will not be possible to call `onlyOwner` functions. Can only be called by the current owner. NOTE: Renouncing ownership will leave the contract without an owner, thereby disabling any functionality that is only available to the owner."
      },
      "sha256Hash(uint256[])": {
        "params": {
          "array": "The array of uint256 elements."
        },
        "returns": {
          "result": "The SHA256 hash of the array."
        }
      },
      "signUp((uint256,uint256),bytes,bytes)": {
        "params": {
          "_initialVoiceCreditProxyData": "Data to pass to the     InitialVoiceCreditProxy, which allows it to determine how many voice     credits this user should have.",
          "_pubKey": "The user's desired public key.",
          "_signUpGatekeeperData": "Data to pass to the sign-up gatekeeper's     register() function. For instance, the POAPGatekeeper or     SignUpTokenGatekeeper requires this value to be the ABI-encoded     token ID."
        }
      },
      "signUp((uint256,uint256),bytes,bytes,(uint256,uint256,uint256,uint256,uint256[4],uint256[8]))": {
        "params": {
          "_initialVoiceCreditProxyData": "Data to pass to the     InitialVoiceCreditProxy, which allows it to determine how many voice     credits this user should have.",
          "_pubKey": "The user's desired public key.",
          "_signUpGatekeeperData": "Data to pass to the sign-up gatekeeper's     register() function. For instance, the POAPGatekeeper or     SignUpTokenGatekeeper requires this value to be the ABI-encoded     token ID."
        }
      },
      "transferOwnership(address)": {
        "details": "Transfers ownership of the contract to a new account (`newOwner`). Can only be called by the current owner."
      }
    },
    "title": "MACI - Minimum Anti-Collusion Infrastructure Version 1",
    "version": 1
  },
  "userdoc": {
    "errors": {
      "DefaultZeroBadIndex()": [
        {
          "notice": "Custom errors"
        }
      ],
      "InvalidMessage()": [
        {
          "notice": "custom errors"
        }
      ],
      "PoseidonHashLibrariesNotLinked()": [
        {
          "notice": "custom errors"
        }
      ]
    },
    "kind": "user",
    "methods": {
      "MESSAGE_DATA_LENGTH()": {
        "notice": "the length of a MACI message"
      },
      "deployPoll(uint256,(uint8,uint8,uint8,uint8),(uint256,uint256),address,address,uint8)": {
        "notice": "Deploy a new Poll contract."
      },
      "emptyBallotRoots(uint256)": {
        "notice": "The roots of the empty ballot trees"
      },
      "getPoll(uint256)": {
        "notice": "Get the Poll details"
      },
      "getStateTreeRoot()": {
        "notice": "Return the main root of the StateAq contract"
      },
      "hash2(uint256[2])": {
        "notice": "Computes the Poseidon hash of two uint256 elements."
      },
      "hash3(uint256[3])": {
        "notice": "Computes the Poseidon hash of three uint256 elements."
      },
      "hash4(uint256[4])": {
        "notice": "Computes the Poseidon hash of four uint256 elements."
      },
      "hash5(uint256[5])": {
        "notice": "Computes the Poseidon hash of five uint256 elements."
      },
      "hashLeftRight(uint256,uint256)": {
        "notice": "Computes the Poseidon hash of two uint256 elements."
      },
      "hashMessageAndEncPubKey((uint256[10]),(uint256,uint256))": {
        "notice": "An utility function used to hash a MACI message and an encryption public key"
      },
      "hashStateLeaf(((uint256,uint256),uint256,uint256))": {
        "notice": "An utility function used to hash a state leaf"
      },
      "initialVoiceCreditProxy()": {
        "notice": "The contract which provides the values of the initial voice credit balance per user"
      },
      "lazyIMTData()": {
        "notice": "The state tree. Represents a mapping between each user's public key and their voice credit balance."
      },
      "messageProcessorFactory()": {
        "notice": "Factory contract that deploy a MessageProcessor contract"
      },
      "nextPollId()": {
        "notice": "Each poll has an incrementing ID"
      },
      "numSignUps()": {
        "notice": "Get the number of signups"
      },
      "padAndHashMessage(uint256[2])": {
        "notice": "An utility function used to pad and hash a MACI message"
      },
      "pollFactory()": {
        "notice": "Factory contract that deploy a Poll contract"
      },
      "polls(uint256)": {
        "notice": "A mapping of poll IDs to Poll contracts."
      },
      "sha256Hash(uint256[])": {
        "notice": "Computes the SHA256 hash of an array of uint256 elements."
      },
      "signUp((uint256,uint256),bytes,bytes)": {
        "notice": "Allows any eligible user sign up. The sign-up gatekeeper should prevent double sign-ups or ineligible users from doing so.  This function will only succeed if the sign-up deadline has not passed. It also enqueues a fresh state leaf into the state AccQueue."
      },
      "signUp((uint256,uint256),bytes,bytes,(uint256,uint256,uint256,uint256,uint256[4],uint256[8]))": {
        "notice": "Allows any eligible user sign up. The sign-up gatekeeper should prevent double sign-ups or ineligible users from doing so.  This function will only succeed if the sign-up deadline has not passed. It also enqueues a fresh state leaf into the state AccQueue."
      },
      "signUpGatekeeper()": {
        "notice": "Address of the SignUpGatekeeper, a contract which determines whether a user may sign up to vote"
      },
      "stateTreeDepth()": {
        "notice": "The state tree depth is fixed. As such it should be as large as feasible so that there can be as many users as possible.  i.e. 2 ** 23 = 8388608 this should also match the parameter of the circom circuits.IMPORTANT: remember to change the ballot tree depth in contracts/ts/genEmptyBallotRootsContract.ts file if we change the state tree depth!"
      },
      "tallyFactory()": {
        "notice": "Factory contract that deploy a Tally contract"
      }
    },
    "notice": "A contract which allows users to sign up, and deploy new polls",
    "version": 1
  },
  "storageLayout": {
    "storage": [
      {
        "astId": 798,
        "contract": "contracts/maci-contracts/MACIWrapper.sol:MACIWrapper",
        "label": "emptyBallotRoots",
        "offset": 0,
        "slot": "0",
        "type": "t_array(t_uint256)5_storage"
      },
      {
        "astId": 801,
        "contract": "contracts/maci-contracts/MACIWrapper.sol:MACIWrapper",
        "label": "nextPollId",
        "offset": 0,
        "slot": "5",
        "type": "t_uint256"
      },
      {
        "astId": 806,
        "contract": "contracts/maci-contracts/MACIWrapper.sol:MACIWrapper",
        "label": "polls",
        "offset": 0,
        "slot": "6",
        "type": "t_mapping(t_uint256,t_address)"
      },
      {
        "astId": 822,
        "contract": "contracts/maci-contracts/MACIWrapper.sol:MACIWrapper",
        "label": "lazyIMTData",
        "offset": 0,
        "slot": "7",
        "type": "t_struct(LazyIMTData)3001_storage"
      },
      {
        "astId": 8,
        "contract": "contracts/maci-contracts/MACIWrapper.sol:MACIWrapper",
        "label": "_owner",
        "offset": 0,
        "slot": "9",
        "type": "t_address"
      },
      {
        "astId": 270,
        "contract": "contracts/maci-contracts/MACIWrapper.sol:MACIWrapper",
        "label": "_polls",
        "offset": 0,
        "slot": "10",
        "type": "t_mapping(t_uint256,t_struct(PollData)248_storage)"
      },
      {
        "astId": 273,
        "contract": "contracts/maci-contracts/MACIWrapper.sol:MACIWrapper",
        "label": "treeDepths",
        "offset": 0,
        "slot": "11",
        "type": "t_struct(TreeDepths)3788_storage"
      },
      {
        "astId": 276,
        "contract": "contracts/maci-contracts/MACIWrapper.sol:MACIWrapper",
        "label": "coordinatorPubKey",
        "offset": 0,
        "slot": "12",
        "type": "t_struct(PubKey)3761_storage"
      },
      {
        "astId": 278,
        "contract": "contracts/maci-contracts/MACIWrapper.sol:MACIWrapper",
        "label": "verifier",
        "offset": 0,
        "slot": "14",
        "type": "t_address"
      },
      {
        "astId": 280,
        "contract": "contracts/maci-contracts/MACIWrapper.sol:MACIWrapper",
        "label": "vkRegistry",
        "offset": 0,
        "slot": "15",
        "type": "t_address"
      },
      {
        "astId": 283,
        "contract": "contracts/maci-contracts/MACIWrapper.sol:MACIWrapper",
        "label": "AnonAadhar",
        "offset": 0,
        "slot": "16",
        "type": "t_contract(IAnonAadhaar)201"
      },
      {
        "astId": 287,
        "contract": "contracts/maci-contracts/MACIWrapper.sol:MACIWrapper",
        "label": "pollIds",
        "offset": 0,
        "slot": "17",
        "type": "t_mapping(t_address,t_uint256)"
      },
      {
        "astId": 319,
        "contract": "contracts/maci-contracts/MACIWrapper.sol:MACIWrapper",
        "label": "isPublicKeyRegistered",
        "offset": 0,
        "slot": "18",
        "type": "t_mapping(t_uint256,t_mapping(t_uint256,t_bool))"
      }
    ],
    "types": {
      "t_address": {
        "encoding": "inplace",
        "label": "address",
        "numberOfBytes": "20"
      },
      "t_array(t_string_storage)dyn_storage": {
        "base": "t_string_storage",
        "encoding": "dynamic_array",
        "label": "string[]",
        "numberOfBytes": "32"
      },
      "t_array(t_uint256)5_storage": {
        "base": "t_uint256",
        "encoding": "inplace",
        "label": "uint256[5]",
        "numberOfBytes": "160"
      },
      "t_bool": {
        "encoding": "inplace",
        "label": "bool",
        "numberOfBytes": "1"
      },
      "t_bytes_storage": {
        "encoding": "bytes",
        "label": "bytes",
        "numberOfBytes": "32"
      },
      "t_contract(IAnonAadhaar)201": {
        "encoding": "inplace",
        "label": "contract IAnonAadhaar",
        "numberOfBytes": "20"
      },
      "t_mapping(t_address,t_uint256)": {
        "encoding": "mapping",
        "key": "t_address",
        "label": "mapping(address => uint256)",
        "numberOfBytes": "32",
        "value": "t_uint256"
      },
      "t_mapping(t_uint256,t_address)": {
        "encoding": "mapping",
        "key": "t_uint256",
        "label": "mapping(uint256 => address)",
        "numberOfBytes": "32",
        "value": "t_address"
      },
      "t_mapping(t_uint256,t_bool)": {
        "encoding": "mapping",
        "key": "t_uint256",
        "label": "mapping(uint256 => bool)",
        "numberOfBytes": "32",
        "value": "t_bool"
      },
      "t_mapping(t_uint256,t_mapping(t_uint256,t_bool))": {
        "encoding": "mapping",
        "key": "t_uint256",
        "label": "mapping(uint256 => mapping(uint256 => bool))",
        "numberOfBytes": "32",
        "value": "t_mapping(t_uint256,t_bool)"
      },
      "t_mapping(t_uint256,t_struct(PollData)248_storage)": {
        "encoding": "mapping",
        "key": "t_uint256",
        "label": "mapping(uint256 => struct MACIWrapper.PollData)",
        "numberOfBytes": "32",
        "value": "t_struct(PollData)248_storage"
      },
      "t_mapping(t_uint256,t_uint256)": {
        "encoding": "mapping",
        "key": "t_uint256",
        "label": "mapping(uint256 => uint256)",
        "numberOfBytes": "32",
        "value": "t_uint256"
      },
      "t_string_storage": {
        "encoding": "bytes",
        "label": "string",
        "numberOfBytes": "32"
      },
      "t_struct(LazyIMTData)3001_storage": {
        "encoding": "inplace",
        "label": "struct LazyIMTData",
        "members": [
          {
            "astId": 2994,
            "contract": "contracts/maci-contracts/MACIWrapper.sol:MACIWrapper",
            "label": "maxIndex",
            "offset": 0,
            "slot": "0",
            "type": "t_uint40"
          },
          {
            "astId": 2996,
            "contract": "contracts/maci-contracts/MACIWrapper.sol:MACIWrapper",
            "label": "numberOfLeaves",
            "offset": 5,
            "slot": "0",
            "type": "t_uint40"
          },
          {
            "astId": 3000,
            "contract": "contracts/maci-contracts/MACIWrapper.sol:MACIWrapper",
            "label": "elements",
            "offset": 0,
            "slot": "1",
            "type": "t_mapping(t_uint256,t_uint256)"
          }
        ],
        "numberOfBytes": "64"
      },
      "t_struct(PollContracts)838_storage": {
        "encoding": "inplace",
        "label": "struct MACI.PollContracts",
        "members": [
          {
            "astId": 833,
            "contract": "contracts/maci-contracts/MACIWrapper.sol:MACIWrapper",
            "label": "poll",
            "offset": 0,
            "slot": "0",
            "type": "t_address"
          },
          {
            "astId": 835,
            "contract": "contracts/maci-contracts/MACIWrapper.sol:MACIWrapper",
            "label": "messageProcessor",
            "offset": 0,
            "slot": "1",
            "type": "t_address"
          },
          {
            "astId": 837,
            "contract": "contracts/maci-contracts/MACIWrapper.sol:MACIWrapper",
            "label": "tally",
            "offset": 0,
            "slot": "2",
            "type": "t_address"
          }
        ],
        "numberOfBytes": "96"
      },
      "t_struct(PollData)248_storage": {
        "encoding": "inplace",
        "label": "struct MACIWrapper.PollData",
        "members": [
          {
            "astId": 227,
            "contract": "contracts/maci-contracts/MACIWrapper.sol:MACIWrapper",
            "label": "id",
            "offset": 0,
            "slot": "0",
            "type": "t_uint256"
          },
          {
            "astId": 229,
            "contract": "contracts/maci-contracts/MACIWrapper.sol:MACIWrapper",
            "label": "name",
            "offset": 0,
            "slot": "1",
            "type": "t_string_storage"
          },
          {
            "astId": 231,
            "contract": "contracts/maci-contracts/MACIWrapper.sol:MACIWrapper",
            "label": "encodedOptions",
            "offset": 0,
            "slot": "2",
            "type": "t_bytes_storage"
          },
          {
            "astId": 233,
            "contract": "contracts/maci-contracts/MACIWrapper.sol:MACIWrapper",
            "label": "metadata",
            "offset": 0,
            "slot": "3",
            "type": "t_string_storage"
          },
          {
            "astId": 236,
            "contract": "contracts/maci-contracts/MACIWrapper.sol:MACIWrapper",
            "label": "pollContracts",
            "offset": 0,
            "slot": "4",
            "type": "t_struct(PollContracts)838_storage"
          },
          {
            "astId": 238,
            "contract": "contracts/maci-contracts/MACIWrapper.sol:MACIWrapper",
            "label": "startTime",
            "offset": 0,
            "slot": "7",
            "type": "t_uint256"
          },
          {
            "astId": 240,
            "contract": "contracts/maci-contracts/MACIWrapper.sol:MACIWrapper",
            "label": "endTime",
            "offset": 0,
            "slot": "8",
            "type": "t_uint256"
          },
          {
            "astId": 242,
            "contract": "contracts/maci-contracts/MACIWrapper.sol:MACIWrapper",
            "label": "numOfOptions",
            "offset": 0,
            "slot": "9",
            "type": "t_uint256"
          },
          {
            "astId": 245,
            "contract": "contracts/maci-contracts/MACIWrapper.sol:MACIWrapper",
            "label": "options",
            "offset": 0,
            "slot": "10",
            "type": "t_array(t_string_storage)dyn_storage"
          },
          {
            "astId": 247,
            "contract": "contracts/maci-contracts/MACIWrapper.sol:MACIWrapper",
            "label": "tallyJsonCID",
            "offset": 0,
            "slot": "11",
            "type": "t_string_storage"
          }
        ],
        "numberOfBytes": "384"
      },
      "t_struct(PubKey)3761_storage": {
        "encoding": "inplace",
        "label": "struct DomainObjs.PubKey",
        "members": [
          {
            "astId": 3758,
            "contract": "contracts/maci-contracts/MACIWrapper.sol:MACIWrapper",
            "label": "x",
            "offset": 0,
            "slot": "0",
            "type": "t_uint256"
          },
          {
            "astId": 3760,
            "contract": "contracts/maci-contracts/MACIWrapper.sol:MACIWrapper",
            "label": "y",
            "offset": 0,
            "slot": "1",
            "type": "t_uint256"
          }
        ],
        "numberOfBytes": "64"
      },
      "t_struct(TreeDepths)3788_storage": {
        "encoding": "inplace",
        "label": "struct Params.TreeDepths",
        "members": [
          {
            "astId": 3781,
            "contract": "contracts/maci-contracts/MACIWrapper.sol:MACIWrapper",
            "label": "intStateTreeDepth",
            "offset": 0,
            "slot": "0",
            "type": "t_uint8"
          },
          {
            "astId": 3783,
            "contract": "contracts/maci-contracts/MACIWrapper.sol:MACIWrapper",
            "label": "messageTreeSubDepth",
            "offset": 1,
            "slot": "0",
            "type": "t_uint8"
          },
          {
            "astId": 3785,
            "contract": "contracts/maci-contracts/MACIWrapper.sol:MACIWrapper",
            "label": "messageTreeDepth",
            "offset": 2,
            "slot": "0",
            "type": "t_uint8"
          },
          {
            "astId": 3787,
            "contract": "contracts/maci-contracts/MACIWrapper.sol:MACIWrapper",
            "label": "voteOptionTreeDepth",
            "offset": 3,
            "slot": "0",
            "type": "t_uint8"
          }
        ],
        "numberOfBytes": "32"
      },
      "t_uint256": {
        "encoding": "inplace",
        "label": "uint256",
        "numberOfBytes": "32"
      },
      "t_uint40": {
        "encoding": "inplace",
        "label": "uint40",
        "numberOfBytes": "5"
      },
      "t_uint8": {
        "encoding": "inplace",
        "label": "uint8",
        "numberOfBytes": "1"
      }
    }
  }
}